{
  "_format": "hh-sol-artifact-1",
  "contractName": "YourCollectible721",
  "sourceName": "contracts/YourCollectible721.sol",
  "abi": [
    {
      "inputs": [],
      "stateMutability": "nonpayable",
      "type": "constructor"
    },
    {
      "anonymous": false,
      "inputs": [
        {
          "indexed": true,
          "internalType": "address",
          "name": "owner",
          "type": "address"
        },
        {
          "indexed": true,
          "internalType": "address",
          "name": "approved",
          "type": "address"
        },
        {
          "indexed": true,
          "internalType": "uint256",
          "name": "tokenId",
          "type": "uint256"
        }
      ],
      "name": "Approval",
      "type": "event"
    },
    {
      "anonymous": false,
      "inputs": [
        {
          "indexed": true,
          "internalType": "address",
          "name": "owner",
          "type": "address"
        },
        {
          "indexed": true,
          "internalType": "address",
          "name": "operator",
          "type": "address"
        },
        {
          "indexed": false,
          "internalType": "bool",
          "name": "approved",
          "type": "bool"
        }
      ],
      "name": "ApprovalForAll",
      "type": "event"
    },
    {
      "anonymous": false,
      "inputs": [
        {
          "indexed": true,
          "internalType": "address",
          "name": "previousOwner",
          "type": "address"
        },
        {
          "indexed": true,
          "internalType": "address",
          "name": "newOwner",
          "type": "address"
        }
      ],
      "name": "OwnershipTransferred",
      "type": "event"
    },
    {
      "anonymous": false,
      "inputs": [
        {
          "indexed": true,
          "internalType": "address",
          "name": "from",
          "type": "address"
        },
        {
          "indexed": true,
          "internalType": "address",
          "name": "to",
          "type": "address"
        },
        {
          "indexed": true,
          "internalType": "uint256",
          "name": "tokenId",
          "type": "uint256"
        }
      ],
      "name": "Transfer",
      "type": "event"
    },
    {
      "inputs": [
        {
          "internalType": "address",
          "name": "to",
          "type": "address"
        },
        {
          "internalType": "uint256",
          "name": "tokenId",
          "type": "uint256"
        }
      ],
      "name": "approve",
      "outputs": [],
      "stateMutability": "nonpayable",
      "type": "function"
    },
    {
      "inputs": [
        {
          "internalType": "address",
          "name": "owner",
          "type": "address"
        }
      ],
      "name": "balanceOf",
      "outputs": [
        {
          "internalType": "uint256",
          "name": "",
          "type": "uint256"
        }
      ],
      "stateMutability": "view",
      "type": "function"
    },
    {
      "inputs": [
        {
          "internalType": "uint256",
          "name": "tokenId",
          "type": "uint256"
        }
      ],
      "name": "getApproved",
      "outputs": [
        {
          "internalType": "address",
          "name": "",
          "type": "address"
        }
      ],
      "stateMutability": "view",
      "type": "function"
    },
    {
      "inputs": [
        {
          "internalType": "address",
          "name": "owner",
          "type": "address"
        },
        {
          "internalType": "address",
          "name": "operator",
          "type": "address"
        }
      ],
      "name": "isApprovedForAll",
      "outputs": [
        {
          "internalType": "bool",
          "name": "",
          "type": "bool"
        }
      ],
      "stateMutability": "view",
      "type": "function"
    },
    {
      "inputs": [
        {
          "internalType": "address",
          "name": "player",
          "type": "address"
        },
        {
          "internalType": "string",
          "name": "tokenURI",
          "type": "string"
        }
      ],
      "name": "mintItem",
      "outputs": [
        {
          "internalType": "uint256",
          "name": "",
          "type": "uint256"
        }
      ],
      "stateMutability": "nonpayable",
      "type": "function"
    },
    {
      "inputs": [],
      "name": "name",
      "outputs": [
        {
          "internalType": "string",
          "name": "",
          "type": "string"
        }
      ],
      "stateMutability": "view",
      "type": "function"
    },
    {
      "inputs": [],
      "name": "owner",
      "outputs": [
        {
          "internalType": "address",
          "name": "",
          "type": "address"
        }
      ],
      "stateMutability": "view",
      "type": "function"
    },
    {
      "inputs": [
        {
          "internalType": "uint256",
          "name": "tokenId",
          "type": "uint256"
        }
      ],
      "name": "ownerOf",
      "outputs": [
        {
          "internalType": "address",
          "name": "",
          "type": "address"
        }
      ],
      "stateMutability": "view",
      "type": "function"
    },
    {
      "inputs": [],
      "name": "renounceOwnership",
      "outputs": [],
      "stateMutability": "nonpayable",
      "type": "function"
    },
    {
      "inputs": [
        {
          "internalType": "address",
          "name": "to",
          "type": "address"
        },
        {
          "internalType": "uint256",
          "name": "tokenId",
          "type": "uint256"
        }
      ],
      "name": "safeMint",
      "outputs": [],
      "stateMutability": "nonpayable",
      "type": "function"
    },
    {
      "inputs": [
        {
          "internalType": "address",
          "name": "from",
          "type": "address"
        },
        {
          "internalType": "address",
          "name": "to",
          "type": "address"
        },
        {
          "internalType": "uint256",
          "name": "tokenId",
          "type": "uint256"
        }
      ],
      "name": "safeTransferFrom",
      "outputs": [],
      "stateMutability": "nonpayable",
      "type": "function"
    },
    {
      "inputs": [
        {
          "internalType": "address",
          "name": "from",
          "type": "address"
        },
        {
          "internalType": "address",
          "name": "to",
          "type": "address"
        },
        {
          "internalType": "uint256",
          "name": "tokenId",
          "type": "uint256"
        },
        {
          "internalType": "bytes",
          "name": "_data",
          "type": "bytes"
        }
      ],
      "name": "safeTransferFrom",
      "outputs": [],
      "stateMutability": "nonpayable",
      "type": "function"
    },
    {
      "inputs": [
        {
          "internalType": "address",
          "name": "operator",
          "type": "address"
        },
        {
          "internalType": "bool",
          "name": "approved",
          "type": "bool"
        }
      ],
      "name": "setApprovalForAll",
      "outputs": [],
      "stateMutability": "nonpayable",
      "type": "function"
    },
    {
      "inputs": [
        {
          "internalType": "bytes4",
          "name": "interfaceId",
          "type": "bytes4"
        }
      ],
      "name": "supportsInterface",
      "outputs": [
        {
          "internalType": "bool",
          "name": "",
          "type": "bool"
        }
      ],
      "stateMutability": "view",
      "type": "function"
    },
    {
      "inputs": [],
      "name": "symbol",
      "outputs": [
        {
          "internalType": "string",
          "name": "",
          "type": "string"
        }
      ],
      "stateMutability": "view",
      "type": "function"
    },
    {
      "inputs": [
        {
          "internalType": "uint256",
          "name": "index",
          "type": "uint256"
        }
      ],
      "name": "tokenByIndex",
      "outputs": [
        {
          "internalType": "uint256",
          "name": "",
          "type": "uint256"
        }
      ],
      "stateMutability": "view",
      "type": "function"
    },
    {
      "inputs": [
        {
          "internalType": "address",
          "name": "owner",
          "type": "address"
        },
        {
          "internalType": "uint256",
          "name": "index",
          "type": "uint256"
        }
      ],
      "name": "tokenOfOwnerByIndex",
      "outputs": [
        {
          "internalType": "uint256",
          "name": "",
          "type": "uint256"
        }
      ],
      "stateMutability": "view",
      "type": "function"
    },
    {
      "inputs": [
        {
          "internalType": "uint256",
          "name": "tokenId",
          "type": "uint256"
        }
      ],
      "name": "tokenURI",
      "outputs": [
        {
          "internalType": "string",
          "name": "",
          "type": "string"
        }
      ],
      "stateMutability": "view",
      "type": "function"
    },
    {
      "inputs": [],
      "name": "totalSupply",
      "outputs": [
        {
          "internalType": "uint256",
          "name": "",
          "type": "uint256"
        }
      ],
      "stateMutability": "view",
      "type": "function"
    },
    {
      "inputs": [
        {
          "internalType": "address",
          "name": "from",
          "type": "address"
        },
        {
          "internalType": "address",
          "name": "to",
          "type": "address"
        },
        {
          "internalType": "uint256",
          "name": "tokenId",
          "type": "uint256"
        }
      ],
      "name": "transferFrom",
      "outputs": [],
      "stateMutability": "nonpayable",
      "type": "function"
    },
    {
      "inputs": [
        {
          "internalType": "address",
          "name": "newOwner",
          "type": "address"
        }
      ],
      "name": "transferOwnership",
      "outputs": [],
      "stateMutability": "nonpayable",
      "type": "function"
    }
  ],
  "bytecode": "0x60806040523480156200001157600080fd5b50604080518082018252600881526747616d654974656d60c01b60208083019182528351808501909452600384526249544d60e81b9084015281519192916200005d91600091620000e0565b50805162000073906001906020840190620000e0565b505050600062000088620000dc60201b60201c565b600b80546001600160a01b0319166001600160a01b038316908117909155604051919250906000907f8be0079c531659141344cd1fd0a4f28419497f9722a3daafe3b4186f6b6457e0908290a350620001c3565b3390565b828054620000ee9062000186565b90600052602060002090601f0160209004810192826200011257600085556200015d565b82601f106200012d57805160ff19168380011785556200015d565b828001600101855582156200015d579182015b828111156200015d57825182559160200191906001019062000140565b506200016b9291506200016f565b5090565b5b808211156200016b576000815560010162000170565b600181811c908216806200019b57607f821691505b60208210811415620001bd57634e487b7160e01b600052602260045260246000fd5b50919050565b611db080620001d36000396000f3fe608060405234801561001057600080fd5b50600436106101375760003560e01c80636352211e116100b8578063a14481941161007c578063a144819414610275578063a22cb46514610288578063b88d4fde1461029b578063c87b56dd146102ae578063e985e9c5146102c1578063f2fde38b146102fd57600080fd5b80636352211e1461022e57806370a0823114610241578063715018a6146102545780638da5cb5b1461025c57806395d89b411461026d57600080fd5b806318160ddd116100ff57806318160ddd146101da57806323b872dd146101e25780632f745c59146101f557806342842e0e146102085780634f6ccce71461021b57600080fd5b806301ffc9a71461013c57806306fdde0314610164578063081812fc14610179578063095ea7b3146101a4578063110bcd45146101b9575b600080fd5b61014f61014a366004611a73565b610310565b60405190151581526020015b60405180910390f35b61016c610321565b60405161015b9190611b5b565b61018c610187366004611aab565b6103b3565b6040516001600160a01b03909116815260200161015b565b6101b76101b2366004611a4a565b610440565b005b6101cc6101c73660046119eb565b610556565b60405190815260200161015b565b6009546101cc565b6101b76101f03660046118fd565b61058e565b6101cc610203366004611a4a565b6105bf565b6101b76102163660046118fd565b610655565b6101cc610229366004611aab565b610670565b61018c61023c366004611aab565b610711565b6101cc61024f3660046118b1565b610788565b6101b761080f565b600b546001600160a01b031661018c565b61016c610883565b6101b7610283366004611a4a565b610892565b6101b76102963660046119b1565b6108ca565b6101b76102a9366004611938565b61098f565b61016c6102bc366004611aab565b6109c7565b61014f6102cf3660046118cb565b6001600160a01b03918216600090815260056020908152604080832093909416825291909152205460ff1690565b6101b761030b3660046118b1565b6109d2565b600061031b82610abd565b92915050565b60606000805461033090611cb5565b80601f016020809104026020016040519081016040528092919081815260200182805461035c90611cb5565b80156103a95780601f1061037e576101008083540402835291602001916103a9565b820191906000526020600020905b81548152906001019060200180831161038c57829003601f168201915b5050505050905090565b60006103be82610ae2565b6104245760405162461bcd60e51b815260206004820152602c60248201527f4552433732313a20617070726f76656420717565727920666f72206e6f6e657860448201526b34b9ba32b73a103a37b5b2b760a11b60648201526084015b60405180910390fd5b506000908152600460205260409020546001600160a01b031690565b600061044b82610711565b9050806001600160a01b0316836001600160a01b031614156104b95760405162461bcd60e51b815260206004820152602160248201527f4552433732313a20617070726f76616c20746f2063757272656e74206f776e656044820152603960f91b606482015260840161041b565b336001600160a01b03821614806104d557506104d581336102cf565b6105475760405162461bcd60e51b815260206004820152603860248201527f4552433732313a20617070726f76652063616c6c6572206973206e6f74206f7760448201527f6e6572206e6f7220617070726f76656420666f7220616c6c0000000000000000606482015260840161041b565b6105518383610aff565b505050565b6000610566600c80546001019055565b6000610571600c5490565b905061057d8482610b6d565b6105878184610cac565b9392505050565b6105983382610d37565b6105b45760405162461bcd60e51b815260040161041b90611bf5565b610551838383610e21565b60006105ca83610788565b821061062c5760405162461bcd60e51b815260206004820152602b60248201527f455243373231456e756d657261626c653a206f776e657220696e646578206f7560448201526a74206f6620626f756e647360a81b606482015260840161041b565b506001600160a01b03919091166000908152600760209081526040808320938352929052205490565b6105518383836040518060200160405280600081525061098f565b600061067b60095490565b82106106de5760405162461bcd60e51b815260206004820152602c60248201527f455243373231456e756d657261626c653a20676c6f62616c20696e646578206f60448201526b7574206f6620626f756e647360a01b606482015260840161041b565b600982815481106106ff57634e487b7160e01b600052603260045260246000fd5b90600052602060002001549050919050565b6000818152600260205260408120546001600160a01b03168061031b5760405162461bcd60e51b815260206004820152602960248201527f4552433732313a206f776e657220717565727920666f72206e6f6e657869737460448201526832b73a103a37b5b2b760b91b606482015260840161041b565b60006001600160a01b0382166107f35760405162461bcd60e51b815260206004820152602a60248201527f4552433732313a2062616c616e636520717565727920666f7220746865207a65604482015269726f206164647265737360b01b606482015260840161041b565b506001600160a01b031660009081526003602052604090205490565b600b546001600160a01b031633146108395760405162461bcd60e51b815260040161041b90611bc0565b600b546040516000916001600160a01b0316907f8be0079c531659141344cd1fd0a4f28419497f9722a3daafe3b4186f6b6457e0908390a3600b80546001600160a01b0319169055565b60606001805461033090611cb5565b600b546001600160a01b031633146108bc5760405162461bcd60e51b815260040161041b90611bc0565b6108c68282610fcc565b5050565b6001600160a01b0382163314156109235760405162461bcd60e51b815260206004820152601960248201527f4552433732313a20617070726f766520746f2063616c6c657200000000000000604482015260640161041b565b3360008181526005602090815260408083206001600160a01b03871680855290835292819020805460ff191686151590811790915590519081529192917f17307eab39ab6107e8899845ad3d59bd9653f200f220920489ca2b5937696c31910160405180910390a35050565b6109993383610d37565b6109b55760405162461bcd60e51b815260040161041b90611bf5565b6109c184848484610fe6565b50505050565b606061031b82611019565b600b546001600160a01b031633146109fc5760405162461bcd60e51b815260040161041b90611bc0565b6001600160a01b038116610a615760405162461bcd60e51b815260206004820152602660248201527f4f776e61626c653a206e6577206f776e657220697320746865207a65726f206160448201526564647265737360d01b606482015260840161041b565b600b546040516001600160a01b038084169216907f8be0079c531659141344cd1fd0a4f28419497f9722a3daafe3b4186f6b6457e090600090a3600b80546001600160a01b0319166001600160a01b0392909216919091179055565b60006001600160e01b0319821663780e9d6360e01b148061031b575061031b82611188565b6000908152600260205260409020546001600160a01b0316151590565b600081815260046020526040902080546001600160a01b0319166001600160a01b0384169081179091558190610b3482610711565b6001600160a01b03167f8c5be1e5ebec7d5bd14f71427d1e84f3dd0314c0f7b2291e5b200ac8c7c3b92560405160405180910390a45050565b6001600160a01b038216610bc35760405162461bcd60e51b815260206004820181905260248201527f4552433732313a206d696e7420746f20746865207a65726f2061646472657373604482015260640161041b565b610bcc81610ae2565b15610c195760405162461bcd60e51b815260206004820152601c60248201527f4552433732313a20746f6b656e20616c7265616479206d696e74656400000000604482015260640161041b565b610c25600083836111d8565b6001600160a01b0382166000908152600360205260408120805460019290610c4e908490611c46565b909155505060008181526002602052604080822080546001600160a01b0319166001600160a01b03861690811790915590518392907fddf252ad1be2c89b69c2b068fc378daa952ba7f163c4a11628f55a4df523b3ef908290a45050565b610cb582610ae2565b610d185760405162461bcd60e51b815260206004820152602e60248201527f45524337323155524953746f726167653a2055524920736574206f66206e6f6e60448201526d32bc34b9ba32b73a103a37b5b2b760911b606482015260840161041b565b6000828152600660209081526040909120825161055192840190611786565b6000610d4282610ae2565b610da35760405162461bcd60e51b815260206004820152602c60248201527f4552433732313a206f70657261746f7220717565727920666f72206e6f6e657860448201526b34b9ba32b73a103a37b5b2b760a11b606482015260840161041b565b6000610dae83610711565b9050806001600160a01b0316846001600160a01b03161480610de95750836001600160a01b0316610dde846103b3565b6001600160a01b0316145b80610e1957506001600160a01b0380821660009081526005602090815260408083209388168352929052205460ff165b949350505050565b826001600160a01b0316610e3482610711565b6001600160a01b031614610e9c5760405162461bcd60e51b815260206004820152602960248201527f4552433732313a207472616e73666572206f6620746f6b656e2074686174206960448201526839903737ba1037bbb760b91b606482015260840161041b565b6001600160a01b038216610efe5760405162461bcd60e51b8152602060048201526024808201527f4552433732313a207472616e7366657220746f20746865207a65726f206164646044820152637265737360e01b606482015260840161041b565b610f098383836111d8565b610f14600082610aff565b6001600160a01b0383166000908152600360205260408120805460019290610f3d908490611c72565b90915550506001600160a01b0382166000908152600360205260408120805460019290610f6b908490611c46565b909155505060008181526002602052604080822080546001600160a01b0319166001600160a01b0386811691821790925591518493918716917fddf252ad1be2c89b69c2b068fc378daa952ba7f163c4a11628f55a4df523b3ef91a4505050565b6108c68282604051806020016040528060008152506111e3565b610ff1848484610e21565b610ffd84848484611216565b6109c15760405162461bcd60e51b815260040161041b90611b6e565b606061102482610ae2565b61108a5760405162461bcd60e51b815260206004820152603160248201527f45524337323155524953746f726167653a2055524920717565727920666f72206044820152703737b732bc34b9ba32b73a103a37b5b2b760791b606482015260840161041b565b600082815260066020526040812080546110a390611cb5565b80601f01602080910402602001604051908101604052809291908181526020018280546110cf90611cb5565b801561111c5780601f106110f15761010080835404028352916020019161111c565b820191906000526020600020905b8154815290600101906020018083116110ff57829003601f168201915b50505050509050600061113a60408051602081019091526000815290565b905080516000141561114d575092915050565b81511561117f578082604051602001611167929190611aef565b60405160208183030381529060405292505050919050565b610e1984611323565b60006001600160e01b031982166380ac58cd60e01b14806111b957506001600160e01b03198216635b5e139f60e01b145b8061031b57506301ffc9a760e01b6001600160e01b031983161461031b565b6105518383836113fa565b6111ed8383610b6d565b6111fa6000848484611216565b6105515760405162461bcd60e51b815260040161041b90611b6e565b60006001600160a01b0384163b1561131857604051630a85bd0160e11b81526001600160a01b0385169063150b7a029061125a903390899088908890600401611b1e565b602060405180830381600087803b15801561127457600080fd5b505af19250505080156112a4575060408051601f3d908101601f191682019092526112a191810190611a8f565b60015b6112fe573d8080156112d2576040519150601f19603f3d011682016040523d82523d6000602084013e6112d7565b606091505b5080516112f65760405162461bcd60e51b815260040161041b90611b6e565b805181602001fd5b6001600160e01b031916630a85bd0160e11b149050610e19565b506001949350505050565b606061132e82610ae2565b6113925760405162461bcd60e51b815260206004820152602f60248201527f4552433732314d657461646174613a2055524920717565727920666f72206e6f60448201526e3732bc34b9ba32b73a103a37b5b2b760891b606482015260840161041b565b60006113a960408051602081019091526000815290565b905060008151116113c95760405180602001604052806000815250610587565b806113d3846114b2565b6040516020016113e4929190611aef565b6040516020818303038152906040529392505050565b6001600160a01b0383166114555761145081600980546000838152600a60205260408120829055600182018355919091527f6e1540171b6c0c960b71a7020d9f60077f6af931a8bbf590da0223dacf75c7af0155565b611478565b816001600160a01b0316836001600160a01b0316146114785761147883826115cc565b6001600160a01b03821661148f5761055181611669565b826001600160a01b0316826001600160a01b031614610551576105518282611742565b6060816114d65750506040805180820190915260018152600360fc1b602082015290565b8160005b811561150057806114ea81611cf0565b91506114f99050600a83611c5e565b91506114da565b60008167ffffffffffffffff81111561152957634e487b7160e01b600052604160045260246000fd5b6040519080825280601f01601f191660200182016040528015611553576020820181803683370190505b5090505b8415610e1957611568600183611c72565b9150611575600a86611d0b565b611580906030611c46565b60f81b8183815181106115a357634e487b7160e01b600052603260045260246000fd5b60200101906001600160f81b031916908160001a9053506115c5600a86611c5e565b9450611557565b600060016115d984610788565b6115e39190611c72565b600083815260086020526040902054909150808214611636576001600160a01b03841660009081526007602090815260408083208584528252808320548484528184208190558352600890915290208190555b5060009182526008602090815260408084208490556001600160a01b039094168352600781528383209183525290812055565b60095460009061167b90600190611c72565b6000838152600a6020526040812054600980549394509092849081106116b157634e487b7160e01b600052603260045260246000fd5b9060005260206000200154905080600983815481106116e057634e487b7160e01b600052603260045260246000fd5b6000918252602080832090910192909255828152600a9091526040808220849055858252812055600980548061172657634e487b7160e01b600052603160045260246000fd5b6001900381819060005260206000200160009055905550505050565b600061174d83610788565b6001600160a01b039093166000908152600760209081526040808320868452825280832085905593825260089052919091209190915550565b82805461179290611cb5565b90600052602060002090601f0160209004810192826117b457600085556117fa565b82601f106117cd57805160ff19168380011785556117fa565b828001600101855582156117fa579182015b828111156117fa5782518255916020019190600101906117df565b5061180692915061180a565b5090565b5b80821115611806576000815560010161180b565b600067ffffffffffffffff8084111561183a5761183a611d4b565b604051601f8501601f19908116603f0116810190828211818310171561186257611862611d4b565b8160405280935085815286868601111561187b57600080fd5b858560208301376000602087830101525050509392505050565b80356001600160a01b03811681146118ac57600080fd5b919050565b6000602082840312156118c2578081fd5b61058782611895565b600080604083850312156118dd578081fd5b6118e683611895565b91506118f460208401611895565b90509250929050565b600080600060608486031215611911578081fd5b61191a84611895565b925061192860208501611895565b9150604084013590509250925092565b6000806000806080858703121561194d578081fd5b61195685611895565b935061196460208601611895565b925060408501359150606085013567ffffffffffffffff811115611986578182fd5b8501601f81018713611996578182fd5b6119a58782356020840161181f565b91505092959194509250565b600080604083850312156119c3578182fd5b6119cc83611895565b9150602083013580151581146119e0578182fd5b809150509250929050565b600080604083850312156119fd578182fd5b611a0683611895565b9150602083013567ffffffffffffffff811115611a21578182fd5b8301601f81018513611a31578182fd5b611a408582356020840161181f565b9150509250929050565b60008060408385031215611a5c578182fd5b611a6583611895565b946020939093013593505050565b600060208284031215611a84578081fd5b813561058781611d61565b600060208284031215611aa0578081fd5b815161058781611d61565b600060208284031215611abc578081fd5b5035919050565b60008151808452611adb816020860160208601611c89565b601f01601f19169290920160200192915050565b60008351611b01818460208801611c89565b835190830190611b15818360208801611c89565b01949350505050565b6001600160a01b0385811682528416602082015260408101839052608060608201819052600090611b5190830184611ac3565b9695505050505050565b6020815260006105876020830184611ac3565b60208082526032908201527f4552433732313a207472616e7366657220746f206e6f6e20455243373231526560408201527131b2b4bb32b91034b6b83632b6b2b73a32b960711b606082015260800190565b6020808252818101527f4f776e61626c653a2063616c6c6572206973206e6f7420746865206f776e6572604082015260600190565b60208082526031908201527f4552433732313a207472616e736665722063616c6c6572206973206e6f74206f6040820152701ddb995c881b9bdc88185c1c1c9bdd9959607a1b606082015260800190565b60008219821115611c5957611c59611d1f565b500190565b600082611c6d57611c6d611d35565b500490565b600082821015611c8457611c84611d1f565b500390565b60005b83811015611ca4578181015183820152602001611c8c565b838111156109c15750506000910152565b600181811c90821680611cc957607f821691505b60208210811415611cea57634e487b7160e01b600052602260045260246000fd5b50919050565b6000600019821415611d0457611d04611d1f565b5060010190565b600082611d1a57611d1a611d35565b500690565b634e487b7160e01b600052601160045260246000fd5b634e487b7160e01b600052601260045260246000fd5b634e487b7160e01b600052604160045260246000fd5b6001600160e01b031981168114611d7757600080fd5b5056fea2646970667358221220aed1c39f15e93871fdc9c9864ac4620db99d0d004003e418d67d3174248c3d1164736f6c63430008040033",
  "linkReferences": {},
  "deployedLinkReferences": {}
}