{
  "_format": "hh-sol-artifact-1",
  "contractName": "ERC1155Lending",
  "sourceName": "contracts/ERC1155Lending.sol",
  "abi": [
    {
      "anonymous": false,
      "inputs": [
        {
          "indexed": false,
          "internalType": "address",
          "name": "token",
          "type": "address"
        }
      ],
      "name": "ERC1155ForLendRemoved",
      "type": "event"
    },
    {
      "anonymous": false,
      "inputs": [
        {
          "indexed": false,
          "internalType": "address",
          "name": "token",
          "type": "address"
        }
      ],
      "name": "ERC1155ForLendUpdated",
      "type": "event"
    },
    {
      "anonymous": false,
      "inputs": [
        {
          "indexed": true,
          "internalType": "address",
          "name": "previousOwner",
          "type": "address"
        },
        {
          "indexed": true,
          "internalType": "address",
          "name": "newOwner",
          "type": "address"
        }
      ],
      "name": "OwnershipTransferred",
      "type": "event"
    },
    {
      "inputs": [],
      "name": "ERC1155Address",
      "outputs": [
        {
          "internalType": "address",
          "name": "",
          "type": "address"
        }
      ],
      "stateMutability": "view",
      "type": "function"
    },
    {
      "inputs": [],
      "name": "acceptedPayTokenAddress",
      "outputs": [
        {
          "internalType": "address",
          "name": "",
          "type": "address"
        }
      ],
      "stateMutability": "view",
      "type": "function"
    },
    {
      "inputs": [
        {
          "internalType": "address",
          "name": "token",
          "type": "address"
        },
        {
          "internalType": "uint256",
          "name": "tokenId",
          "type": "uint256"
        }
      ],
      "name": "approveBarter",
      "outputs": [],
      "stateMutability": "nonpayable",
      "type": "function"
    },
    {
      "inputs": [
        {
          "internalType": "uint256",
          "name": "borrowedAtTimestamp",
          "type": "uint256"
        },
        {
          "internalType": "uint256",
          "name": "durationHours",
          "type": "uint256"
        }
      ],
      "name": "isDurationExpired",
      "outputs": [
        {
          "internalType": "bool",
          "name": "",
          "type": "bool"
        }
      ],
      "stateMutability": "view",
      "type": "function"
    },
    {
      "inputs": [
        {
          "internalType": "address",
          "name": "",
          "type": "address"
        }
      ],
      "name": "lentERC1155List",
      "outputs": [
        {
          "internalType": "uint256",
          "name": "durationHours",
          "type": "uint256"
        },
        {
          "internalType": "uint256",
          "name": "borrowedAtTimestamp",
          "type": "uint256"
        },
        {
          "internalType": "address",
          "name": "lender",
          "type": "address"
        },
        {
          "internalType": "address",
          "name": "borrower",
          "type": "address"
        },
        {
          "internalType": "address",
          "name": "acceptedToken",
          "type": "address"
        },
        {
          "internalType": "uint256",
          "name": "acceptedTokenId",
          "type": "uint256"
        }
      ],
      "stateMutability": "view",
      "type": "function"
    },
    {
      "inputs": [
        {
          "internalType": "address",
          "name": "wantedToken",
          "type": "address"
        },
        {
          "internalType": "address",
          "name": "offerToken",
          "type": "address"
        },
        {
          "internalType": "uint256",
          "name": "tokenId",
          "type": "uint256"
        }
      ],
      "name": "makeOffer",
      "outputs": [],
      "stateMutability": "nonpayable",
      "type": "function"
    },
    {
      "inputs": [
        {
          "internalType": "address",
          "name": "",
          "type": "address"
        },
        {
          "internalType": "address",
          "name": "",
          "type": "address"
        },
        {
          "internalType": "uint256[]",
          "name": "",
          "type": "uint256[]"
        },
        {
          "internalType": "uint256[]",
          "name": "",
          "type": "uint256[]"
        },
        {
          "internalType": "bytes",
          "name": "",
          "type": "bytes"
        }
      ],
      "name": "onERC1155BatchReceived",
      "outputs": [
        {
          "internalType": "bytes4",
          "name": "",
          "type": "bytes4"
        }
      ],
      "stateMutability": "nonpayable",
      "type": "function"
    },
    {
      "inputs": [
        {
          "internalType": "address",
          "name": "",
          "type": "address"
        },
        {
          "internalType": "address",
          "name": "",
          "type": "address"
        },
        {
          "internalType": "uint256",
          "name": "",
          "type": "uint256"
        },
        {
          "internalType": "uint256",
          "name": "",
          "type": "uint256"
        },
        {
          "internalType": "bytes",
          "name": "",
          "type": "bytes"
        }
      ],
      "name": "onERC1155Received",
      "outputs": [
        {
          "internalType": "bytes4",
          "name": "",
          "type": "bytes4"
        }
      ],
      "stateMutability": "nonpayable",
      "type": "function"
    },
    {
      "inputs": [],
      "name": "owner",
      "outputs": [
        {
          "internalType": "address",
          "name": "",
          "type": "address"
        }
      ],
      "stateMutability": "view",
      "type": "function"
    },
    {
      "inputs": [],
      "name": "renounceOwnership",
      "outputs": [],
      "stateMutability": "nonpayable",
      "type": "function"
    },
    {
      "inputs": [
        {
          "internalType": "address",
          "name": "token",
          "type": "address"
        },
        {
          "internalType": "uint256",
          "name": "tokenId",
          "type": "uint256"
        },
        {
          "internalType": "uint256",
          "name": "durationHours",
          "type": "uint256"
        },
        {
          "internalType": "address",
          "name": "acceptedToken",
          "type": "address"
        },
        {
          "internalType": "uint256",
          "name": "acceptedTokenId",
          "type": "uint256"
        }
      ],
      "name": "startBartering",
      "outputs": [],
      "stateMutability": "nonpayable",
      "type": "function"
    },
    {
      "inputs": [
        {
          "internalType": "bytes4",
          "name": "interfaceId",
          "type": "bytes4"
        }
      ],
      "name": "supportsInterface",
      "outputs": [
        {
          "internalType": "bool",
          "name": "",
          "type": "bool"
        }
      ],
      "stateMutability": "view",
      "type": "function"
    },
    {
      "inputs": [
        {
          "internalType": "address",
          "name": "newOwner",
          "type": "address"
        }
      ],
      "name": "transferOwnership",
      "outputs": [],
      "stateMutability": "nonpayable",
      "type": "function"
    }
  ],
  "bytecode": "0x608060405234801561001057600080fd5b50600080546001600160a01b031916339081178255604051909182917f8be0079c531659141344cd1fd0a4f28419497f9722a3daafe3b4186f6b6457e0908290a3506111b2806100616000396000f3fe608060405234801561001057600080fd5b50600436106100cf5760003560e01c80638da5cb5b1161008c578063e10b852411610066578063e10b8524146101c6578063f152768014610255578063f23a6e6114610268578063f2fde38b1461028757600080fd5b80638da5cb5b1461016a578063bc197c811461017b578063c80d9222146101b357600080fd5b806301ffc9a7146100d457806320e292d4146100fc57806348cc4178146101115780635e2afd9614610124578063709250c91461014f578063715018a614610162575b600080fd5b6100e76100e2366004611023565b61029a565b60405190151581526020015b60405180910390f35b61010f61010a366004610fad565b6102d1565b005b61010f61011f366004610fd6565b6104a5565b600154610137906001600160a01b031681565b6040516001600160a01b0390911681526020016100f3565b600254610137906001600160a01b031681565b61010f6108bb565b6000546001600160a01b0316610137565b61019a610189366004610e69565b63bc197c8160e01b95945050505050565b6040516001600160e01b031990911681526020016100f3565b6100e76101c136600461104b565b61095f565b6102196101d4366004610e48565b6003602081905260009182526040909120805460018201546002830154938301546004840154600590940154929491936001600160a01b039283169391831692169086565b6040805196875260208701959095526001600160a01b0393841694860194909452908216606085015216608083015260a082015260c0016100f3565b61010f610263366004610f0f565b610991565b61019a610276366004610f4a565b63f23a6e6160e01b95945050505050565b61010f610295366004610e48565b610c24565b60006001600160e01b03198216630271189760e51b14806102cb57506301ffc9a760e01b6001600160e01b03198316145b92915050565b6001600160a01b03808316600090815260036020819052604090912060028101546004820154600583015492909301549084169392831692163384146103575760405162461bcd60e51b81526020600482015260166024820152754e6f742063726561746f72206f66206261727465722160501b60448201526064015b60405180910390fd5b6040805160048082526024820183526020820180516001600160e01b031663c5d2460160e01b1790529151637921219560e11b815290916001600160a01b0386169163f242432a916103b491309187918c9160019189910161106c565b600060405180830381600087803b1580156103ce57600080fd5b505af11580156103e2573d6000803e3d6000fd5b5050604051637921219560e11b81526001600160a01b038a16925063f242432a915061041b90309089908890600190889060040161106c565b600060405180830381600087803b15801561043557600080fd5b505af1158015610449573d6000803e3d6000fd5b505050506001600160a01b03871660008181526003602090815260408083209290925590519182527fdd32c18f3d911dc2fe98e848af85467180ddbe7da442602729b0eba7acea6fbc910160405180910390a150505050505050565b600083116105075760405162461bcd60e51b815260206004820152602960248201527f4c656e64696e673a204c656e64696e67206475726174696f6e206d75737420626044820152680652061626f766520360bc1b606482015260840161034e565b6001600160a01b0385811660009081526003602081905260409091200154161561058f5760405162461bcd60e51b815260206004820152603360248201527f4c656e64696e673a2043616e6e6f74206368616e67652073657474696e67732c604482015272081d1bdad95b88185b1c9958591e481b195b9d606a1b606482015260840161034e565b6040805160048082526024820183526020820180516001600160e01b031663c5d2460160e01b1790529151637921219560e11b815290916001600160a01b0388169163f242432a916105ec91339130918b9160019189910161106c565b600060405180830381600087803b15801561060657600080fd5b505af115801561061a573d6000803e3d6000fd5b505050506040518060c0016040528085815260200160008152602001306001600160a01b0316815260200160006001600160a01b03168152602001846001600160a01b031681526020018381525060036000886001600160a01b03166001600160a01b03168152602001908152602001600020600082015181600001556020820151816001015560408201518160020160006101000a8154816001600160a01b0302191690836001600160a01b0316021790555060608201518160030160006101000a8154816001600160a01b0302191690836001600160a01b0316021790555060808201518160040160006101000a8154816001600160a01b0302191690836001600160a01b0316021790555060a0820151816005015590505060046040518060600160405280336001600160a01b03168152602001886001600160a01b0316815260200187815250908060018154018082558091505060019003906000526020600020906003020160009091909190915060008201518160000160006101000a8154816001600160a01b0302191690836001600160a01b0316021790555060208201518160010160006101000a8154816001600160a01b0302191690836001600160a01b031602179055506040820151816002015550503360036000886001600160a01b03166001600160a01b0316815260200190815260200160002060020160006101000a8154816001600160a01b0302191690836001600160a01b031602179055504260036000886001600160a01b03166001600160a01b03168152602001908152602001600020600101819055507f7c989f2fccb63be2c04bfe1f556090060ae284ac2eefc187ad397f9f3f48052a866040516108ab91906001600160a01b0391909116815260200190565b60405180910390a1505050505050565b6000546001600160a01b031633146109155760405162461bcd60e51b815260206004820181905260248201527f4f776e61626c653a2063616c6c6572206973206e6f7420746865206f776e6572604482015260640161034e565b600080546040516001600160a01b03909116907f8be0079c531659141344cd1fd0a4f28419497f9722a3daafe3b4186f6b6457e0908390a3600080546001600160a01b0319169055565b60008061096c8442611139565b9050600061097b82603c61111a565b61098690603c61111a565b909310949350505050565b6001600160a01b0380841660009081526003602052604090206004810154600582015491549216916109f95760405162461bcd60e51b815260206004820152601160248201527042617274657220636f6d706c657465642160781b604482015260640161034e565b6040805160048152602481018252602080820180516001600160e01b031663c5d2460160e01b1790526001600160a01b038816600090815260039091529190912060018101549054610a4b919061095f565b15610bb457846001600160a01b0316836001600160a01b031614610aa75760405162461bcd60e51b81526020600482015260136024820152724e6f7420616363657074656420746f6b656e2160681b604482015260640161034e565b838214610ae95760405162461bcd60e51b815260206004820152601060248201526f4e6f742061636365707465642069642160801b604482015260640161034e565b604051637921219560e11b81526001600160a01b0386169063f242432a90610b1e90339030908990600190889060040161106c565b600060405180830381600087803b158015610b3857600080fd5b505af1158015610b4c573d6000803e3d6000fd5b505050506001600160a01b03861660008181526003602081815260409283902090910180546001600160a01b0319163317905590519182527f7c989f2fccb63be2c04bfe1f556090060ae284ac2eefc187ad397f9f3f48052a910160405180910390a1610c1c565b604051637921219560e11b81526001600160a01b0384169063f242432a90610be990309033908990600190889060040161106c565b600060405180830381600087803b158015610c0357600080fd5b505af1158015610c17573d6000803e3d6000fd5b505050505b505050505050565b6000546001600160a01b03163314610c7e5760405162461bcd60e51b815260206004820181905260248201527f4f776e61626c653a2063616c6c6572206973206e6f7420746865206f776e6572604482015260640161034e565b6001600160a01b038116610ce35760405162461bcd60e51b815260206004820152602660248201527f4f776e61626c653a206e6577206f776e657220697320746865207a65726f206160448201526564647265737360d01b606482015260840161034e565b600080546040516001600160a01b03808516939216917f8be0079c531659141344cd1fd0a4f28419497f9722a3daafe3b4186f6b6457e091a3600080546001600160a01b0319166001600160a01b0392909216919091179055565b80356001600160a01b0381168114610d5557600080fd5b919050565b600082601f830112610d6a578081fd5b8135602067ffffffffffffffff821115610d8657610d86611166565b8160051b610d958282016110e9565b838152828101908684018388018501891015610daf578687fd5b8693505b85841015610dd1578035835260019390930192918401918401610db3565b50979650505050505050565b600082601f830112610ded578081fd5b813567ffffffffffffffff811115610e0757610e07611166565b610e1a601f8201601f19166020016110e9565b818152846020838601011115610e2e578283fd5b816020850160208301379081016020019190915292915050565b600060208284031215610e59578081fd5b610e6282610d3e565b9392505050565b600080600080600060a08688031215610e80578081fd5b610e8986610d3e565b9450610e9760208701610d3e565b9350604086013567ffffffffffffffff80821115610eb3578283fd5b610ebf89838a01610d5a565b94506060880135915080821115610ed4578283fd5b610ee089838a01610d5a565b93506080880135915080821115610ef5578283fd5b50610f0288828901610ddd565b9150509295509295909350565b600080600060608486031215610f23578283fd5b610f2c84610d3e565b9250610f3a60208501610d3e565b9150604084013590509250925092565b600080600080600060a08688031215610f61578081fd5b610f6a86610d3e565b9450610f7860208701610d3e565b93506040860135925060608601359150608086013567ffffffffffffffff811115610fa1578182fd5b610f0288828901610ddd565b60008060408385031215610fbf578182fd5b610fc883610d3e565b946020939093013593505050565b600080600080600060a08688031215610fed578081fd5b610ff686610d3e565b9450602086013593506040860135925061101260608701610d3e565b949793965091946080013592915050565b600060208284031215611034578081fd5b81356001600160e01b031981168114610e62578182fd5b6000806040838503121561105d578182fd5b50508035926020909101359150565b600060018060a01b03808816835260208188168185015286604085015285606085015260a06080850152845191508160a0850152825b828110156110be5785810182015185820160c0015281016110a2565b828111156110cf578360c084870101525b5050601f01601f19169190910160c0019695505050505050565b604051601f8201601f1916810167ffffffffffffffff8111828210171561111257611112611166565b604052919050565b600081600019048311821515161561113457611134611150565b500290565b60008282101561114b5761114b611150565b500390565b634e487b7160e01b600052601160045260246000fd5b634e487b7160e01b600052604160045260246000fdfea26469706673582212203fa7c3ecddcedbd71841471c9356ca57667d83381363a764c7667c33f68089e064736f6c63430008040033",
  "linkReferences": {},
  "deployedLinkReferences": {}
}