{
  "_format": "hh-sol-artifact-1",
  "contractName": "ERC721Lending",
  "sourceName": "contracts/ERC721Lending.sol",
  "abi": [
    {
      "anonymous": false,
      "inputs": [
        {
          "indexed": false,
          "internalType": "uint256",
          "name": "tokenId",
          "type": "uint256"
        }
      ],
      "name": "ERC721ForLendRemoved",
      "type": "event"
    },
    {
      "anonymous": false,
      "inputs": [
        {
          "indexed": false,
          "internalType": "address",
          "name": "token",
          "type": "address"
        }
      ],
      "name": "ERC721ForLendUpdated",
      "type": "event"
    },
    {
      "anonymous": false,
      "inputs": [
        {
          "indexed": true,
          "internalType": "address",
          "name": "previousOwner",
          "type": "address"
        },
        {
          "indexed": true,
          "internalType": "address",
          "name": "newOwner",
          "type": "address"
        }
      ],
      "name": "OwnershipTransferred",
      "type": "event"
    },
    {
      "anonymous": false,
      "inputs": [],
      "name": "Received",
      "type": "event"
    },
    {
      "inputs": [],
      "name": "ERC1155Address",
      "outputs": [
        {
          "internalType": "address",
          "name": "",
          "type": "address"
        }
      ],
      "stateMutability": "view",
      "type": "function"
    },
    {
      "inputs": [],
      "name": "acceptedPayTokenAddress",
      "outputs": [
        {
          "internalType": "address",
          "name": "",
          "type": "address"
        }
      ],
      "stateMutability": "view",
      "type": "function"
    },
    {
      "inputs": [
        {
          "internalType": "address",
          "name": "token",
          "type": "address"
        },
        {
          "internalType": "uint256",
          "name": "tokenId",
          "type": "uint256"
        }
      ],
      "name": "approveBarter",
      "outputs": [],
      "stateMutability": "nonpayable",
      "type": "function"
    },
    {
      "inputs": [
        {
          "internalType": "uint256",
          "name": "borrowedAtTimestamp",
          "type": "uint256"
        },
        {
          "internalType": "uint256",
          "name": "durationHours",
          "type": "uint256"
        }
      ],
      "name": "isDurationExpired",
      "outputs": [
        {
          "internalType": "bool",
          "name": "",
          "type": "bool"
        }
      ],
      "stateMutability": "view",
      "type": "function"
    },
    {
      "inputs": [
        {
          "internalType": "address",
          "name": "",
          "type": "address"
        }
      ],
      "name": "lentERC721List",
      "outputs": [
        {
          "internalType": "uint256",
          "name": "durationHours",
          "type": "uint256"
        },
        {
          "internalType": "uint256",
          "name": "borrowedAtTimestamp",
          "type": "uint256"
        },
        {
          "internalType": "address",
          "name": "lender",
          "type": "address"
        },
        {
          "internalType": "address",
          "name": "borrower",
          "type": "address"
        },
        {
          "internalType": "address",
          "name": "acceptedToken",
          "type": "address"
        },
        {
          "internalType": "uint256",
          "name": "acceptedTokenId",
          "type": "uint256"
        }
      ],
      "stateMutability": "view",
      "type": "function"
    },
    {
      "inputs": [
        {
          "internalType": "address",
          "name": "wantedToken",
          "type": "address"
        },
        {
          "internalType": "address",
          "name": "offerToken",
          "type": "address"
        },
        {
          "internalType": "uint256",
          "name": "tokenId",
          "type": "uint256"
        }
      ],
      "name": "makeOffer",
      "outputs": [],
      "stateMutability": "nonpayable",
      "type": "function"
    },
    {
      "inputs": [
        {
          "internalType": "address",
          "name": "_operator",
          "type": "address"
        },
        {
          "internalType": "address",
          "name": "_from",
          "type": "address"
        },
        {
          "internalType": "uint256",
          "name": "_tokenId",
          "type": "uint256"
        },
        {
          "internalType": "bytes",
          "name": "_data",
          "type": "bytes"
        }
      ],
      "name": "onERC721Received",
      "outputs": [
        {
          "internalType": "bytes4",
          "name": "",
          "type": "bytes4"
        }
      ],
      "stateMutability": "nonpayable",
      "type": "function"
    },
    {
      "inputs": [],
      "name": "owner",
      "outputs": [
        {
          "internalType": "address",
          "name": "",
          "type": "address"
        }
      ],
      "stateMutability": "view",
      "type": "function"
    },
    {
      "inputs": [],
      "name": "renounceOwnership",
      "outputs": [],
      "stateMutability": "nonpayable",
      "type": "function"
    },
    {
      "inputs": [
        {
          "internalType": "address",
          "name": "token",
          "type": "address"
        },
        {
          "internalType": "uint256",
          "name": "tokenId",
          "type": "uint256"
        },
        {
          "internalType": "uint256",
          "name": "durationHours",
          "type": "uint256"
        },
        {
          "internalType": "address",
          "name": "acceptedToken",
          "type": "address"
        },
        {
          "internalType": "uint256",
          "name": "acceptedTokenId",
          "type": "uint256"
        }
      ],
      "name": "startBartering",
      "outputs": [],
      "stateMutability": "nonpayable",
      "type": "function"
    },
    {
      "inputs": [
        {
          "internalType": "address",
          "name": "newOwner",
          "type": "address"
        }
      ],
      "name": "transferOwnership",
      "outputs": [],
      "stateMutability": "nonpayable",
      "type": "function"
    }
  ],
  "bytecode": "0x608060405234801561001057600080fd5b50600080546001600160a01b031916339081178255604051909182917f8be0079c531659141344cd1fd0a4f28419497f9722a3daafe3b4186f6b6457e0908290a350610e96806100616000396000f3fe608060405234801561001057600080fd5b50600436106100a95760003560e01c8063715018a611610071578063715018a6146101455780638da5cb5b1461014d578063a106a6d01461015e578063c80d9222146101ed578063f152768014610210578063f2fde38b1461022357600080fd5b8063150b7a02146100ae57806320e292d4146100df57806348cc4178146100f45780635e2afd9614610107578063709250c914610132575b600080fd5b6100c16100bc366004610cc3565b610236565b6040516001600160e01b031990911681526020015b60405180910390f35b6100f26100ed366004610d59565b610273565b005b6100f2610102366004610d82565b610414565b60015461011a906001600160a01b031681565b6040516001600160a01b0390911681526020016100d6565b60025461011a906001600160a01b031681565b6100f26107fc565b6000546001600160a01b031661011a565b6101b161016c366004610c67565b6003602081905260009182526040909120805460018201546002830154938301546004840154600590940154929491936001600160a01b039283169391831692169086565b6040805196875260208701959095526001600160a01b0393841694860194909452908216606085015216608083015260a082015260c0016100d6565b6102006101fb366004610dcf565b6108a0565b60405190151581526020016100d6565b6100f261021e366004610c88565b6108d2565b6100f2610231366004610c67565b610b31565b6040516000907f544c765b33ca411cce832250371569244f765a17fcd217832be093f0fd5fa45b908290a150630a85bd0160e11b95945050505050565b6001600160a01b03808316600090815260036020819052604090912060028101546004820154600583015492909301549084169392831692163384146102f95760405162461bcd60e51b81526020600482015260166024820152754e6f742063726561746f72206f66206261727465722160501b60448201526064015b60405180910390fd5b604051632142170760e11b81526001600160a01b038416906342842e0e9061032990309085908a90600401610df0565b600060405180830381600087803b15801561034357600080fd5b505af1158015610357573d6000803e3d6000fd5b5050604051632142170760e11b81526001600160a01b03891692506342842e0e915061038b90309088908790600401610df0565b600060405180830381600087803b1580156103a557600080fd5b505af11580156103b9573d6000803e3d6000fd5b505050506001600160a01b03861660008181526003602090815260408083209290925590519182527fc8d9f5be6de7d759b26f4c44e8fbd723643bdb5599fc1658f0a950d34708d51b910160405180910390a1505050505050565b600083116104765760405162461bcd60e51b815260206004820152602960248201527f4c656e64696e673a204c656e64696e67206475726174696f6e206d75737420626044820152680652061626f766520360bc1b60648201526084016102f0565b6001600160a01b038581166000908152600360208190526040909120015416156104fe5760405162461bcd60e51b815260206004820152603360248201527f4c656e64696e673a2043616e6e6f74206368616e67652073657474696e67732c604482015272081d1bdad95b88185b1c9958591e481b195b9d606a1b60648201526084016102f0565b604051632142170760e11b81526001600160a01b038616906342842e0e9061052e90339030908990600401610df0565b600060405180830381600087803b15801561054857600080fd5b505af115801561055c573d6000803e3d6000fd5b505050506040518060c0016040528084815260200160008152602001306001600160a01b0316815260200160006001600160a01b03168152602001836001600160a01b031681526020018281525060036000876001600160a01b03166001600160a01b03168152602001908152602001600020600082015181600001556020820151816001015560408201518160020160006101000a8154816001600160a01b0302191690836001600160a01b0316021790555060608201518160030160006101000a8154816001600160a01b0302191690836001600160a01b0316021790555060808201518160040160006101000a8154816001600160a01b0302191690836001600160a01b0316021790555060a0820151816005015590505060046040518060600160405280336001600160a01b03168152602001876001600160a01b0316815260200186815250908060018154018082558091505060019003906000526020600020906003020160009091909190915060008201518160000160006101000a8154816001600160a01b0302191690836001600160a01b0316021790555060208201518160010160006101000a8154816001600160a01b0302191690836001600160a01b031602179055506040820151816002015550503360036000876001600160a01b03166001600160a01b0316815260200190815260200160002060020160006101000a8154816001600160a01b0302191690836001600160a01b031602179055504260036000876001600160a01b03166001600160a01b03168152602001908152602001600020600101819055507fc8d9f5be6de7d759b26f4c44e8fbd723643bdb5599fc1658f0a950d34708d51b856040516107ed91906001600160a01b0391909116815260200190565b60405180910390a15050505050565b6000546001600160a01b031633146108565760405162461bcd60e51b815260206004820181905260248201527f4f776e61626c653a2063616c6c6572206973206e6f7420746865206f776e657260448201526064016102f0565b600080546040516001600160a01b03909116907f8be0079c531659141344cd1fd0a4f28419497f9722a3daafe3b4186f6b6457e0908390a3600080546001600160a01b0319169055565b6000806108ad8442610e33565b905060006108bc82603c610e14565b6108c790603c610e14565b909310949350505050565b6001600160a01b03808416600090815260036020526040902060048101546005820154915492169161093a5760405162461bcd60e51b815260206004820152601160248201527042617274657220636f6d706c657465642160781b60448201526064016102f0565b6001600160a01b03851660009081526003602052604090206001810154905461096391906108a0565b15610ac757836001600160a01b0316826001600160a01b0316146109bf5760405162461bcd60e51b81526020600482015260136024820152724e6f7420616363657074656420746f6b656e2160681b60448201526064016102f0565b828114610a015760405162461bcd60e51b815260206004820152601060248201526f4e6f742061636365707465642069642160801b60448201526064016102f0565b604051632142170760e11b81526001600160a01b038516906342842e0e90610a3190339030908890600401610df0565b600060405180830381600087803b158015610a4b57600080fd5b505af1158015610a5f573d6000803e3d6000fd5b505050506001600160a01b03851660008181526003602081815260409283902090910180546001600160a01b0319163317905590519182527fc8d9f5be6de7d759b26f4c44e8fbd723643bdb5599fc1658f0a950d34708d51b910160405180910390a1610b2a565b604051632142170760e11b81526001600160a01b038316906342842e0e90610af790309033908890600401610df0565b600060405180830381600087803b158015610b1157600080fd5b505af1158015610b25573d6000803e3d6000fd5b505050505b5050505050565b6000546001600160a01b03163314610b8b5760405162461bcd60e51b815260206004820181905260248201527f4f776e61626c653a2063616c6c6572206973206e6f7420746865206f776e657260448201526064016102f0565b6001600160a01b038116610bf05760405162461bcd60e51b815260206004820152602660248201527f4f776e61626c653a206e6577206f776e657220697320746865207a65726f206160448201526564647265737360d01b60648201526084016102f0565b600080546040516001600160a01b03808516939216917f8be0079c531659141344cd1fd0a4f28419497f9722a3daafe3b4186f6b6457e091a3600080546001600160a01b0319166001600160a01b0392909216919091179055565b80356001600160a01b0381168114610c6257600080fd5b919050565b600060208284031215610c78578081fd5b610c8182610c4b565b9392505050565b600080600060608486031215610c9c578182fd5b610ca584610c4b565b9250610cb360208501610c4b565b9150604084013590509250925092565b600080600080600060808688031215610cda578081fd5b610ce386610c4b565b9450610cf160208701610c4b565b935060408601359250606086013567ffffffffffffffff80821115610d14578283fd5b818801915088601f830112610d27578283fd5b813581811115610d35578384fd5b896020828501011115610d46578384fd5b9699959850939650602001949392505050565b60008060408385031215610d6b578182fd5b610d7483610c4b565b946020939093013593505050565b600080600080600060a08688031215610d99578081fd5b610da286610c4b565b94506020860135935060408601359250610dbe60608701610c4b565b949793965091946080013592915050565b60008060408385031215610de1578182fd5b50508035926020909101359150565b6001600160a01b039384168152919092166020820152604081019190915260600190565b6000816000190483118215151615610e2e57610e2e610e4a565b500290565b600082821015610e4557610e45610e4a565b500390565b634e487b7160e01b600052601160045260246000fdfea2646970667358221220e2299d7facc24c98c2c067e8d92bcce9ee36bab15bda130f55d3262c4d9d0d0e64736f6c63430008040033",
  "linkReferences": {},
  "deployedLinkReferences": {}
}