{
  "_format": "hh-sol-artifact-1",
  "contractName": "Barter",
  "sourceName": "contracts/Barter.sol",
  "abi": [
    {
      "anonymous": false,
      "inputs": [
        {
          "indexed": false,
          "internalType": "address",
          "name": "token",
          "type": "address"
        }
      ],
      "name": "ERC1155ForLendRemoved",
      "type": "event"
    },
    {
      "anonymous": false,
      "inputs": [
        {
          "indexed": false,
          "internalType": "address",
          "name": "token",
          "type": "address"
        }
      ],
      "name": "ERC1155ForLendUpdated",
      "type": "event"
    },
    {
      "anonymous": false,
      "inputs": [
        {
          "indexed": false,
          "internalType": "address",
          "name": "token",
          "type": "address"
        }
      ],
      "name": "ERC721ForLendRemoved",
      "type": "event"
    },
    {
      "anonymous": false,
      "inputs": [
        {
          "indexed": false,
          "internalType": "address",
          "name": "token",
          "type": "address"
        }
      ],
      "name": "ERC721ForLendUpdated",
      "type": "event"
    },
    {
      "anonymous": false,
      "inputs": [
        {
          "indexed": true,
          "internalType": "address",
          "name": "previousOwner",
          "type": "address"
        },
        {
          "indexed": true,
          "internalType": "address",
          "name": "newOwner",
          "type": "address"
        }
      ],
      "name": "OwnershipTransferred",
      "type": "event"
    },
    {
      "anonymous": false,
      "inputs": [],
      "name": "Received",
      "type": "event"
    },
    {
      "inputs": [
        {
          "internalType": "address",
          "name": "",
          "type": "address"
        },
        {
          "internalType": "uint256",
          "name": "",
          "type": "uint256"
        }
      ],
      "name": "UsersLend",
      "outputs": [
        {
          "internalType": "uint256",
          "name": "status",
          "type": "uint256"
        },
        {
          "internalType": "address",
          "name": "token",
          "type": "address"
        },
        {
          "internalType": "uint256",
          "name": "tokenId",
          "type": "uint256"
        },
        {
          "internalType": "uint256",
          "name": "tokenStandard",
          "type": "uint256"
        },
        {
          "internalType": "address",
          "name": "borrower",
          "type": "address"
        },
        {
          "internalType": "address",
          "name": "acceptedToken",
          "type": "address"
        },
        {
          "internalType": "uint256",
          "name": "acceptedTokenId",
          "type": "uint256"
        },
        {
          "internalType": "uint256",
          "name": "acceptedTokenStandard",
          "type": "uint256"
        }
      ],
      "stateMutability": "view",
      "type": "function"
    },
    {
      "inputs": [
        {
          "internalType": "address",
          "name": "",
          "type": "address"
        }
      ],
      "name": "UsersLendCount",
      "outputs": [
        {
          "internalType": "uint256",
          "name": "",
          "type": "uint256"
        }
      ],
      "stateMutability": "view",
      "type": "function"
    },
    {
      "inputs": [
        {
          "internalType": "address",
          "name": "token",
          "type": "address"
        },
        {
          "internalType": "uint256",
          "name": "tokenId",
          "type": "uint256"
        },
        {
          "internalType": "uint256",
          "name": "tokenStandard",
          "type": "uint256"
        }
      ],
      "name": "approveBarter",
      "outputs": [],
      "stateMutability": "nonpayable",
      "type": "function"
    },
    {
      "inputs": [
        {
          "internalType": "uint256",
          "name": "borrowedAtTimestamp",
          "type": "uint256"
        },
        {
          "internalType": "uint256",
          "name": "durationHours",
          "type": "uint256"
        }
      ],
      "name": "isDurationExpired",
      "outputs": [
        {
          "internalType": "bool",
          "name": "",
          "type": "bool"
        }
      ],
      "stateMutability": "view",
      "type": "function"
    },
    {
      "inputs": [
        {
          "internalType": "address",
          "name": "wantedToken",
          "type": "address"
        },
        {
          "internalType": "uint256",
          "name": "wantedTokenId",
          "type": "uint256"
        },
        {
          "internalType": "address",
          "name": "offerToken",
          "type": "address"
        },
        {
          "internalType": "uint256",
          "name": "offerTokenId",
          "type": "uint256"
        },
        {
          "internalType": "uint256",
          "name": "wantedTokenStandard",
          "type": "uint256"
        },
        {
          "internalType": "uint256",
          "name": "offerTokenStandard",
          "type": "uint256"
        }
      ],
      "name": "makeOffer",
      "outputs": [],
      "stateMutability": "nonpayable",
      "type": "function"
    },
    {
      "inputs": [
        {
          "internalType": "address",
          "name": "",
          "type": "address"
        },
        {
          "internalType": "address",
          "name": "",
          "type": "address"
        },
        {
          "internalType": "uint256[]",
          "name": "",
          "type": "uint256[]"
        },
        {
          "internalType": "uint256[]",
          "name": "",
          "type": "uint256[]"
        },
        {
          "internalType": "bytes",
          "name": "",
          "type": "bytes"
        }
      ],
      "name": "onERC1155BatchReceived",
      "outputs": [
        {
          "internalType": "bytes4",
          "name": "",
          "type": "bytes4"
        }
      ],
      "stateMutability": "nonpayable",
      "type": "function"
    },
    {
      "inputs": [
        {
          "internalType": "address",
          "name": "",
          "type": "address"
        },
        {
          "internalType": "address",
          "name": "",
          "type": "address"
        },
        {
          "internalType": "uint256",
          "name": "",
          "type": "uint256"
        },
        {
          "internalType": "uint256",
          "name": "",
          "type": "uint256"
        },
        {
          "internalType": "bytes",
          "name": "",
          "type": "bytes"
        }
      ],
      "name": "onERC1155Received",
      "outputs": [
        {
          "internalType": "bytes4",
          "name": "",
          "type": "bytes4"
        }
      ],
      "stateMutability": "nonpayable",
      "type": "function"
    },
    {
      "inputs": [
        {
          "internalType": "address",
          "name": "_operator",
          "type": "address"
        },
        {
          "internalType": "address",
          "name": "_from",
          "type": "address"
        },
        {
          "internalType": "uint256",
          "name": "_tokenId",
          "type": "uint256"
        },
        {
          "internalType": "bytes",
          "name": "_data",
          "type": "bytes"
        }
      ],
      "name": "onERC721Received",
      "outputs": [
        {
          "internalType": "bytes4",
          "name": "",
          "type": "bytes4"
        }
      ],
      "stateMutability": "nonpayable",
      "type": "function"
    },
    {
      "inputs": [],
      "name": "owner",
      "outputs": [
        {
          "internalType": "address",
          "name": "",
          "type": "address"
        }
      ],
      "stateMutability": "view",
      "type": "function"
    },
    {
      "inputs": [],
      "name": "renounceOwnership",
      "outputs": [],
      "stateMutability": "nonpayable",
      "type": "function"
    },
    {
      "inputs": [
        {
          "internalType": "address",
          "name": "token",
          "type": "address"
        },
        {
          "internalType": "uint256",
          "name": "tokenId",
          "type": "uint256"
        },
        {
          "internalType": "uint256",
          "name": "durationHours",
          "type": "uint256"
        },
        {
          "internalType": "address",
          "name": "acceptedToken",
          "type": "address"
        },
        {
          "internalType": "uint256",
          "name": "acceptedTokenId",
          "type": "uint256"
        },
        {
          "internalType": "uint256",
          "name": "tokenStandard",
          "type": "uint256"
        },
        {
          "internalType": "uint256",
          "name": "acceptedTokenStandard",
          "type": "uint256"
        }
      ],
      "name": "startBartering",
      "outputs": [],
      "stateMutability": "nonpayable",
      "type": "function"
    },
    {
      "inputs": [
        {
          "internalType": "bytes4",
          "name": "interfaceId",
          "type": "bytes4"
        }
      ],
      "name": "supportsInterface",
      "outputs": [
        {
          "internalType": "bool",
          "name": "",
          "type": "bool"
        }
      ],
      "stateMutability": "view",
      "type": "function"
    },
    {
      "inputs": [
        {
          "internalType": "address",
          "name": "newOwner",
          "type": "address"
        }
      ],
      "name": "transferOwnership",
      "outputs": [],
      "stateMutability": "nonpayable",
      "type": "function"
    }
  ],
  "bytecode": "0x608060405234801561001057600080fd5b50600080546001600160a01b031916339081178255604051909182917f8be0079c531659141344cd1fd0a4f28419497f9722a3daafe3b4186f6b6457e0908290a3506123f6806100616000396000f3fe608060405234801561001057600080fd5b50600436106100cf5760003560e01c80638da5cb5b1161008c578063bc197c8111610066578063bc197c8114610212578063c80d922214610231578063f23a6e6114610244578063f2fde38b1461026357600080fd5b80638da5cb5b146101d1578063b38df71f146101ec578063b7681ea5146101ff57600080fd5b806301ffc9a7146100d4578063150b7a02146100fc57806340c80b631461012857806342aa051314610156578063715018a61461016b57806380b816f814610173575b600080fd5b6100e76100e2366004612179565b610276565b60405190151581526020015b60405180910390f35b61010f61010a366004611f6e565b6102ad565b6040516001600160e01b031990911681526020016100f3565b610148610136366004611ea7565b60046020526000908152604090205481565b6040519081526020016100f3565b6101696101643660046120e7565b6102ea565b005b610169610b98565b610186610181366004612067565b610c3c565b604080519889526001600160a01b0397881660208a01528801959095526060870193909352908416608086015290921660a084015260c083019190915260e0820152610100016100f3565b6000546040516001600160a01b0390911681526020016100f3565b6101696101fa366004612090565b610cad565b61016961020d366004612119565b61151e565b61010f610220366004611ec8565b63bc197c8160e01b95945050505050565b6100e761023f3660046121b9565b611c51565b61010f610252366004612004565b63f23a6e6160e01b95945050505050565b610169610271366004611ea7565b611c83565b60006001600160e01b03198216630271189760e51b14806102a757506301ffc9a760e01b6001600160e01b03198316145b92915050565b6040516000907f544c765b33ca411cce832250371569244f765a17fcd217832be093f0fd5fa45b908290a150630a85bd0160e11b95945050505050565b6040805160048152602481019091526020810180516001600160e01b031663c5d2460160e01b1790526104838214156106d6576001600160a01b03848116600090815260016020908152604080832087845290915290206002810154600482015460058301546006840154600390940154928516949182169390929091163385146103b55760405162461bcd60e51b81526020600482015260166024820152754e6f742063726561746f72206f66206261727465722160501b60448201526064015b60405180910390fd5b604080516004808252602480830184526020830180516001600160e01b031663c5d2460160e01b1790529251627eeac760e11b815230918101919091529182018a905296506000906001600160a01b038b169062fdd58e9060440160206040518083038186803b15801561042857600080fd5b505afa15801561043c573d6000803e3d6000fd5b505050506040513d601f19601f8201168201806040525081019061046091906121a1565b1161047d5760405162461bcd60e51b81526004016103ac906122ce565b81610483141561058f57604051627eeac760e11b8152306004820152602481018490526000906001600160a01b0386169062fdd58e9060440160206040518083038186803b1580156104ce57600080fd5b505afa1580156104e2573d6000803e3d6000fd5b505050506040513d601f19601f8201168201806040525081019061050691906121a1565b116105235760405162461bcd60e51b81526004016103ac906122ce565b604051637921219560e11b81526001600160a01b0385169063f242432a90610558903090899088906001908d906004016121fe565b600060405180830381600087803b15801561057257600080fd5b505af1158015610586573d6000803e3d6000fd5b505050506105fc565b816102d114156105fc57604051632142170760e11b81526001600160a01b038516906342842e0e906105c9903090899088906004016121da565b600060405180830381600087803b1580156105e357600080fd5b505af11580156105f7573d6000803e3d6000fd5b505050505b604051637921219560e11b81526001600160a01b038a169063f242432a9061063190309085908d906001908d906004016121fe565b600060405180830381600087803b15801561064b57600080fd5b505af115801561065f573d6000803e3d6000fd5b505050506001600160a01b03891660008181526001602090815260408083208c84528252808320928355600390920180546001600160a01b031916905590519182527fdd32c18f3d911dc2fe98e848af85467180ddbe7da442602729b0eba7acea6fbc910160405180910390a150505050506109e4565b6001600160a01b03848116600090815260026020818152604080842088855290915290912090810154600482015460058301546006840154600390940154928516949182169390929091163385146107695760405162461bcd60e51b81526020600482015260166024820152754e6f742063726561746f72206f66206261727465722160501b60448201526064016103ac565b6040805160048152602481019091526020810180516001600160e01b031663c5d2460160e01b17905295506104838214156108a657604051627eeac760e11b8152306004820152602481018490526000906001600160a01b0386169062fdd58e9060440160206040518083038186803b1580156107e557600080fd5b505afa1580156107f9573d6000803e3d6000fd5b505050506040513d601f19601f8201168201806040525081019061081d91906121a1565b1161083a5760405162461bcd60e51b81526004016103ac906122ce565b604051637921219560e11b81526001600160a01b0385169063f242432a9061086f903090899088906001908d906004016121fe565b600060405180830381600087803b15801561088957600080fd5b505af115801561089d573d6000803e3d6000fd5b50505050610913565b816102d1141561091357604051632142170760e11b81526001600160a01b038516906342842e0e906108e0903090899088906004016121da565b600060405180830381600087803b1580156108fa57600080fd5b505af115801561090e573d6000803e3d6000fd5b505050505b604051632142170760e11b81526001600160a01b038a16906342842e0e9061094390309085908d906004016121da565b600060405180830381600087803b15801561095d57600080fd5b505af1158015610971573d6000803e3d6000fd5b505050506001600160a01b03891660008181526002602090815260408083208c84528252808320928355600390920180546001600160a01b031916905590519182527fdf8332822a93063eefe7bb96dc14cd6543052105561575b4757900216856904c910160405180910390a150505050505b33600090815260036020526040812054905b81811015610b9057336000908152600360205260408120805483908110610a2d57634e487b7160e01b600052603260045260246000fd5b6000918252602091829020604080516101008101825260089093029091018054835260018101546001600160a01b03908116948401859052600282015492840192909252600381015460608401526004810154821660808401526005810154821660a0840152600681015460c08401526007015460e08301529092508816148015610abb5750858160400151145b8015610aca5750848160600151145b15610b7d57336000908152600360205260409020805483908110610afe57634e487b7160e01b600052603260045260246000fd5b600091825260208083206008909202909101828155600180820180546001600160a01b031990811690915560028301859055600383018590556004808401805483169055600584018054909216909155600683018590556007909201849055338452915260408220805491929091610b77908490612362565b90915550505b5080610b8881612379565b9150506109f6565b505050505050565b6000546001600160a01b03163314610bf25760405162461bcd60e51b815260206004820181905260248201527f4f776e61626c653a2063616c6c6572206973206e6f7420746865206f776e657260448201526064016103ac565b600080546040516001600160a01b03909116907f8be0079c531659141344cd1fd0a4f28419497f9722a3daafe3b4186f6b6457e0908390a3600080546001600160a01b0319169055565b60036020528160005260406000208181548110610c5857600080fd5b6000918252602090912060089091020180546001820154600283015460038401546004850154600586015460068701546007909701549598506001600160a01b03948516975092959194908416939092169188565b6000826104831415610ce857506001600160a01b03808716600090815260016020908152604080832089845290915290206002015416610d1c565b826102d11415610d1c57506001600160a01b0380871660009081526002602081815260408084208a85529091529091200154165b6001600160a01b038116600090815260036020526040812054905b81811015610f19576001600160a01b0383166000908152600360205260408120805483908110610d7757634e487b7160e01b600052603260045260246000fd5b6000918252602091829020604080516101008101825260089093029091018054835260018101546001600160a01b03908116948401859052600282015492840192909252600381015460608401526004810154821660808401526005810154821660a0840152600681015460c08401526007015460e08301529092508b16148015610e055750888160400151145b8015610e265750876001600160a01b03168160a001516001600160a01b0316145b8015610e355750868160c00151145b15610f06576001600160a01b038416600090815260036020526040902080546002919084908110610e7657634e487b7160e01b600052603260045260246000fd5b9060005260206000209060080201600001819055503360036000866001600160a01b03166001600160a01b031681526020019081526020016000208381548110610ed057634e487b7160e01b600052603260045260246000fd5b906000526020600020906008020160040160006101000a8154816001600160a01b0302191690836001600160a01b031602179055505b5080610f1181612379565b915050610d37565b5083610483141561121c576001600160a01b0388811660009081526001602090815260408083208b84529091529020600481015460058201549154921691610f975760405162461bcd60e51b815260206004820152601160248201527042617274657220636f6d706c657465642160781b60448201526064016103ac565b6040805160048152602481018252602080820180516001600160e01b031663c5d2460160e01b1790526001600160a01b038d16600090815260018083528482208e8352909252929092209182015491549091610ff291611c51565b156111ac57886001600160a01b0316836001600160a01b03161461104e5760405162461bcd60e51b81526020600482015260136024820152724e6f7420616363657074656420746f6b656e2160681b60448201526064016103ac565b8782146110905760405162461bcd60e51b815260206004820152601060248201526f4e6f742061636365707465642069642160801b60448201526064016103ac565b85610483141561116d57604051637921219560e11b81526001600160a01b038a169063f242432a906110cf90339030908d9060019088906004016121fe565b600060405180830381600087803b1580156110e957600080fd5b505af11580156110fd573d6000803e3d6000fd5b505050506001600160a01b038b1660008181526001602090815260408083208e845282529182902060030180546001600160a01b0319163317905590519182527f7c989f2fccb63be2c04bfe1f556090060ae284ac2eefc187ad397f9f3f48052a910160405180910390a1611214565b856102d114156111a757604051632142170760e11b81526001600160a01b038a16906342842e0e906110cf90339030908d906004016121da565b611214565b604051637921219560e11b81526001600160a01b0384169063f242432a906111e190309033908f9060019088906004016121fe565b600060405180830381600087803b1580156111fb57600080fd5b505af115801561120f573d6000803e3d6000fd5b505050505b505050611514565b836102d11415611514576001600160a01b0388811660009081526002602090815260408083208b845290915290206004810154600582015491549216916112995760405162461bcd60e51b815260206004820152601160248201527042617274657220636f6d706c657465642160781b60448201526064016103ac565b6040805160048152602481018252602080820180516001600160e01b031663c5d2460160e01b1790526001600160a01b038d166000908152600282528381208d825290915291909120600181015490546112f39190611c51565b156114ad57886001600160a01b0316836001600160a01b03161461134f5760405162461bcd60e51b81526020600482015260136024820152724e6f7420616363657074656420746f6b656e2160681b60448201526064016103ac565b8782146113915760405162461bcd60e51b815260206004820152601060248201526f4e6f742061636365707465642069642160801b60448201526064016103ac565b85610483141561146e57604051637921219560e11b81526001600160a01b038a169063f242432a906113d090339030908d9060019088906004016121fe565b600060405180830381600087803b1580156113ea57600080fd5b505af11580156113fe573d6000803e3d6000fd5b505050506001600160a01b038b1660008181526002602090815260408083208e845282529182902060030180546001600160a01b0319163317905590519182527fc8d9f5be6de7d759b26f4c44e8fbd723643bdb5599fc1658f0a950d34708d51b910160405180910390a1611510565b856102d114156114a857604051632142170760e11b81526001600160a01b038a16906342842e0e906113d090339030908d906004016121da565b611510565b604051632142170760e11b81526001600160a01b038416906342842e0e906114dd90309033908f906004016121da565b600060405180830381600087803b1580156114f757600080fd5b505af115801561150b573d6000803e3d6000fd5b505050505b5050505b5050505050505050565b600085116115805760405162461bcd60e51b815260206004820152602960248201527f4c656e64696e673a204c656e64696e67206475726174696f6e206d75737420626044820152680652061626f766520360bc1b60648201526084016103ac565b3360009081526004602052604081208054600192906115a090849061232b565b909155505033600090815260036020818152604080842081516101008101835260018082526001600160a01b038e81168387019081529483018e8152606084018b8152608085018a81528e841660a0870190815260c087018f815260e088018e815289548089018b55998e529a909c2096516008909802909601968755965193860180549484166001600160a01b03199586161790559051600286015551968401969096559251600483018054918716918516919091179055516005820180549190951692169190911790925591516006820155905160079091015561048382141561197b576001600160a01b0387811660009081526001602090815260408083208a845290915290206003015416156116cc5760405162461bcd60e51b81526004016103ac9061227b565b6040805160048082526024820183526020820180516001600160e01b031663c5d2460160e01b1790529151637921219560e11b815290916001600160a01b038a169163f242432a9161172991339130918d916001918991016121fe565b600060405180830381600087803b15801561174357600080fd5b505af1158015611757573d6000803e3d6000fd5b505050506040518060e0016040528087815260200160008152602001306001600160a01b0316815260200160006001600160a01b03168152602001866001600160a01b0316815260200185815260200183815250600160008a6001600160a01b03166001600160a01b031681526020019081526020016000206000898152602001908152602001600020600082015181600001556020820151816001015560408201518160020160006101000a8154816001600160a01b0302191690836001600160a01b0316021790555060608201518160030160006101000a8154816001600160a01b0302191690836001600160a01b0316021790555060808201518160040160006101000a8154816001600160a01b0302191690836001600160a01b0316021790555060a0820151816005015560c0820151816006015590505033600160008a6001600160a01b03166001600160a01b03168152602001908152602001600020600089815260200190815260200160002060020160006101000a8154816001600160a01b0302191690836001600160a01b0316021790555042600160008a6001600160a01b03166001600160a01b031681526020019081526020016000206000898152602001908152602001600020600101819055507f7c989f2fccb63be2c04bfe1f556090060ae284ac2eefc187ad397f9f3f48052a8860405161196d91906001600160a01b0391909116815260200190565b60405180910390a150611c48565b816102d11415611c48576001600160a01b0387811660009081526002602090815260408083208a845290915290206003015416156119cb5760405162461bcd60e51b81526004016103ac9061227b565b604051632142170760e11b81526001600160a01b038816906342842e0e906119fb90339030908b906004016121da565b600060405180830381600087803b158015611a1557600080fd5b505af1158015611a29573d6000803e3d6000fd5b505050506040518060e0016040528086815260200160008152602001306001600160a01b0316815260200160006001600160a01b03168152602001856001600160a01b031681526020018481526020018281525060026000896001600160a01b03166001600160a01b031681526020019081526020016000206000888152602001908152602001600020600082015181600001556020820151816001015560408201518160020160006101000a8154816001600160a01b0302191690836001600160a01b0316021790555060608201518160030160006101000a8154816001600160a01b0302191690836001600160a01b0316021790555060808201518160040160006101000a8154816001600160a01b0302191690836001600160a01b0316021790555060a0820151816005015560c082015181600601559050503360026000896001600160a01b03166001600160a01b03168152602001908152602001600020600088815260200190815260200160002060020160006101000a8154816001600160a01b0302191690836001600160a01b031602179055504260026000896001600160a01b03166001600160a01b031681526020019081526020016000206000888152602001908152602001600020600101819055507fc8d9f5be6de7d759b26f4c44e8fbd723643bdb5599fc1658f0a950d34708d51b87604051611c3f91906001600160a01b0391909116815260200190565b60405180910390a15b50505050505050565b600080611c5e8442612362565b90506000611c6d82603c612343565b611c7890603c612343565b909310949350505050565b6000546001600160a01b03163314611cdd5760405162461bcd60e51b815260206004820181905260248201527f4f776e61626c653a2063616c6c6572206973206e6f7420746865206f776e657260448201526064016103ac565b6001600160a01b038116611d425760405162461bcd60e51b815260206004820152602660248201527f4f776e61626c653a206e6577206f776e657220697320746865207a65726f206160448201526564647265737360d01b60648201526084016103ac565b600080546040516001600160a01b03808516939216917f8be0079c531659141344cd1fd0a4f28419497f9722a3daafe3b4186f6b6457e091a3600080546001600160a01b0319166001600160a01b0392909216919091179055565b80356001600160a01b0381168114611db457600080fd5b919050565b600082601f830112611dc9578081fd5b8135602067ffffffffffffffff821115611de557611de56123aa565b8160051b611df48282016122fa565b838152828101908684018388018501891015611e0e578687fd5b8693505b85841015611e30578035835260019390930192918401918401611e12565b50979650505050505050565b600082601f830112611e4c578081fd5b813567ffffffffffffffff811115611e6657611e666123aa565b611e79601f8201601f19166020016122fa565b818152846020838601011115611e8d578283fd5b816020850160208301379081016020019190915292915050565b600060208284031215611eb8578081fd5b611ec182611d9d565b9392505050565b600080600080600060a08688031215611edf578081fd5b611ee886611d9d565b9450611ef660208701611d9d565b9350604086013567ffffffffffffffff80821115611f12578283fd5b611f1e89838a01611db9565b94506060880135915080821115611f33578283fd5b611f3f89838a01611db9565b93506080880135915080821115611f54578283fd5b50611f6188828901611e3c565b9150509295509295909350565b600080600080600060808688031215611f85578081fd5b611f8e86611d9d565b9450611f9c60208701611d9d565b935060408601359250606086013567ffffffffffffffff80821115611fbf578283fd5b818801915088601f830112611fd2578283fd5b813581811115611fe0578384fd5b896020828501011115611ff1578384fd5b9699959850939650602001949392505050565b600080600080600060a0868803121561201b578081fd5b61202486611d9d565b945061203260208701611d9d565b93506040860135925060608601359150608086013567ffffffffffffffff81111561205b578182fd5b611f6188828901611e3c565b60008060408385031215612079578182fd5b61208283611d9d565b946020939093013593505050565b60008060008060008060c087890312156120a8578081fd5b6120b187611d9d565b9550602087013594506120c660408801611d9d565b9350606087013592506080870135915060a087013590509295509295509295565b6000806000606084860312156120fb578283fd5b61210484611d9d565b95602085013595506040909401359392505050565b600080600080600080600060e0888a031215612133578081fd5b61213c88611d9d565b9650602088013595506040880135945061215860608901611d9d565b9699959850939660808101359560a0820135955060c0909101359350915050565b60006020828403121561218a578081fd5b81356001600160e01b031981168114611ec1578182fd5b6000602082840312156121b2578081fd5b5051919050565b600080604083850312156121cb578182fd5b50508035926020909101359150565b6001600160a01b039384168152919092166020820152604081019190915260600190565b600060018060a01b03808816835260208188168185015286604085015285606085015260a06080850152845191508160a0850152825b828110156122505785810182015185820160c001528101612234565b82811115612261578360c084870101525b5050601f01601f19169190910160c0019695505050505050565b60208082526033908201527f4c656e64696e673a2043616e6e6f74206368616e67652073657474696e67732c604082015272081d1bdad95b88185b1c9958591e481b195b9d606a1b606082015260800190565b6020808252601290820152714e6f7420656e6f75676820746f6b656e732160701b604082015260600190565b604051601f8201601f1916810167ffffffffffffffff81118282101715612323576123236123aa565b604052919050565b6000821982111561233e5761233e612394565b500190565b600081600019048311821515161561235d5761235d612394565b500290565b60008282101561237457612374612394565b500390565b600060001982141561238d5761238d612394565b5060010190565b634e487b7160e01b600052601160045260246000fd5b634e487b7160e01b600052604160045260246000fdfea2646970667358221220d42e262f7e91d9273bfcd86c561e9488cf5e7a3752fca1dd44d2af4979b08de064736f6c63430008040033",
  "linkReferences": {},
  "deployedLinkReferences": {}
}