{
  "_format": "hh-sol-artifact-1",
  "contractName": "YourCollectible",
  "sourceName": "contracts/YourCollectible.sol",
  "abi": [
    {
      "inputs": [
        {
          "internalType": "string",
          "name": "_uri",
          "type": "string"
        }
      ],
      "stateMutability": "nonpayable",
      "type": "constructor"
    },
    {
      "anonymous": false,
      "inputs": [
        {
          "indexed": true,
          "internalType": "address",
          "name": "account",
          "type": "address"
        },
        {
          "indexed": true,
          "internalType": "address",
          "name": "operator",
          "type": "address"
        },
        {
          "indexed": false,
          "internalType": "bool",
          "name": "approved",
          "type": "bool"
        }
      ],
      "name": "ApprovalForAll",
      "type": "event"
    },
    {
      "anonymous": false,
      "inputs": [
        {
          "indexed": true,
          "internalType": "address",
          "name": "previousOwner",
          "type": "address"
        },
        {
          "indexed": true,
          "internalType": "address",
          "name": "newOwner",
          "type": "address"
        }
      ],
      "name": "OwnershipTransferred",
      "type": "event"
    },
    {
      "anonymous": false,
      "inputs": [
        {
          "indexed": true,
          "internalType": "address",
          "name": "operator",
          "type": "address"
        },
        {
          "indexed": true,
          "internalType": "address",
          "name": "from",
          "type": "address"
        },
        {
          "indexed": true,
          "internalType": "address",
          "name": "to",
          "type": "address"
        },
        {
          "indexed": false,
          "internalType": "uint256[]",
          "name": "ids",
          "type": "uint256[]"
        },
        {
          "indexed": false,
          "internalType": "uint256[]",
          "name": "values",
          "type": "uint256[]"
        }
      ],
      "name": "TransferBatch",
      "type": "event"
    },
    {
      "anonymous": false,
      "inputs": [
        {
          "indexed": true,
          "internalType": "address",
          "name": "operator",
          "type": "address"
        },
        {
          "indexed": true,
          "internalType": "address",
          "name": "from",
          "type": "address"
        },
        {
          "indexed": true,
          "internalType": "address",
          "name": "to",
          "type": "address"
        },
        {
          "indexed": false,
          "internalType": "uint256",
          "name": "id",
          "type": "uint256"
        },
        {
          "indexed": false,
          "internalType": "uint256",
          "name": "value",
          "type": "uint256"
        }
      ],
      "name": "TransferSingle",
      "type": "event"
    },
    {
      "anonymous": false,
      "inputs": [
        {
          "indexed": false,
          "internalType": "string",
          "name": "value",
          "type": "string"
        },
        {
          "indexed": true,
          "internalType": "uint256",
          "name": "id",
          "type": "uint256"
        }
      ],
      "name": "URI",
      "type": "event"
    },
    {
      "inputs": [
        {
          "internalType": "address",
          "name": "account",
          "type": "address"
        },
        {
          "internalType": "uint256",
          "name": "id",
          "type": "uint256"
        }
      ],
      "name": "balanceOf",
      "outputs": [
        {
          "internalType": "uint256",
          "name": "",
          "type": "uint256"
        }
      ],
      "stateMutability": "view",
      "type": "function"
    },
    {
      "inputs": [
        {
          "internalType": "address[]",
          "name": "accounts",
          "type": "address[]"
        },
        {
          "internalType": "uint256[]",
          "name": "ids",
          "type": "uint256[]"
        }
      ],
      "name": "balanceOfBatch",
      "outputs": [
        {
          "internalType": "uint256[]",
          "name": "",
          "type": "uint256[]"
        }
      ],
      "stateMutability": "view",
      "type": "function"
    },
    {
      "inputs": [],
      "name": "getCurrentTokenID",
      "outputs": [
        {
          "internalType": "uint256",
          "name": "",
          "type": "uint256"
        }
      ],
      "stateMutability": "view",
      "type": "function"
    },
    {
      "inputs": [
        {
          "internalType": "address",
          "name": "account",
          "type": "address"
        },
        {
          "internalType": "address",
          "name": "operator",
          "type": "address"
        }
      ],
      "name": "isApprovedForAll",
      "outputs": [
        {
          "internalType": "bool",
          "name": "",
          "type": "bool"
        }
      ],
      "stateMutability": "view",
      "type": "function"
    },
    {
      "inputs": [
        {
          "internalType": "address",
          "name": "_to",
          "type": "address"
        },
        {
          "internalType": "uint256",
          "name": "_id",
          "type": "uint256"
        },
        {
          "internalType": "uint256",
          "name": "_quantity",
          "type": "uint256"
        },
        {
          "internalType": "bytes",
          "name": "_data",
          "type": "bytes"
        }
      ],
      "name": "mint",
      "outputs": [],
      "stateMutability": "nonpayable",
      "type": "function"
    },
    {
      "inputs": [],
      "name": "owner",
      "outputs": [
        {
          "internalType": "address",
          "name": "",
          "type": "address"
        }
      ],
      "stateMutability": "view",
      "type": "function"
    },
    {
      "inputs": [],
      "name": "renounceOwnership",
      "outputs": [],
      "stateMutability": "nonpayable",
      "type": "function"
    },
    {
      "inputs": [
        {
          "internalType": "address",
          "name": "from",
          "type": "address"
        },
        {
          "internalType": "address",
          "name": "to",
          "type": "address"
        },
        {
          "internalType": "uint256[]",
          "name": "ids",
          "type": "uint256[]"
        },
        {
          "internalType": "uint256[]",
          "name": "amounts",
          "type": "uint256[]"
        },
        {
          "internalType": "bytes",
          "name": "data",
          "type": "bytes"
        }
      ],
      "name": "safeBatchTransferFrom",
      "outputs": [],
      "stateMutability": "nonpayable",
      "type": "function"
    },
    {
      "inputs": [
        {
          "internalType": "address",
          "name": "from",
          "type": "address"
        },
        {
          "internalType": "address",
          "name": "to",
          "type": "address"
        },
        {
          "internalType": "uint256",
          "name": "id",
          "type": "uint256"
        },
        {
          "internalType": "uint256",
          "name": "amount",
          "type": "uint256"
        },
        {
          "internalType": "bytes",
          "name": "data",
          "type": "bytes"
        }
      ],
      "name": "safeTransferFrom",
      "outputs": [],
      "stateMutability": "nonpayable",
      "type": "function"
    },
    {
      "inputs": [
        {
          "internalType": "address",
          "name": "operator",
          "type": "address"
        },
        {
          "internalType": "bool",
          "name": "approved",
          "type": "bool"
        }
      ],
      "name": "setApprovalForAll",
      "outputs": [],
      "stateMutability": "nonpayable",
      "type": "function"
    },
    {
      "inputs": [
        {
          "internalType": "bytes4",
          "name": "interfaceId",
          "type": "bytes4"
        }
      ],
      "name": "supportsInterface",
      "outputs": [
        {
          "internalType": "bool",
          "name": "",
          "type": "bool"
        }
      ],
      "stateMutability": "view",
      "type": "function"
    },
    {
      "inputs": [
        {
          "internalType": "uint256",
          "name": "",
          "type": "uint256"
        }
      ],
      "name": "tokenSupply",
      "outputs": [
        {
          "internalType": "uint256",
          "name": "",
          "type": "uint256"
        }
      ],
      "stateMutability": "view",
      "type": "function"
    },
    {
      "inputs": [
        {
          "internalType": "address",
          "name": "newOwner",
          "type": "address"
        }
      ],
      "name": "transferOwnership",
      "outputs": [],
      "stateMutability": "nonpayable",
      "type": "function"
    },
    {
      "inputs": [
        {
          "internalType": "uint256",
          "name": "",
          "type": "uint256"
        }
      ],
      "name": "uri",
      "outputs": [
        {
          "internalType": "string",
          "name": "",
          "type": "string"
        }
      ],
      "stateMutability": "view",
      "type": "function"
    }
  ],
  "bytecode": "0x608060405260006004553480156200001657600080fd5b5060405162001b9138038062001b9183398101604081905262000039916200014f565b80620000458162000090565b50600380546001600160a01b0319163390811790915560405181906000907f8be0079c531659141344cd1fd0a4f28419497f9722a3daafe3b4186f6b6457e0908290a3505062000278565b8051620000a5906002906020840190620000a9565b5050565b828054620000b79062000225565b90600052602060002090601f016020900481019282620000db576000855562000126565b82601f10620000f657805160ff191683800117855562000126565b8280016001018555821562000126579182015b828111156200012657825182559160200191906001019062000109565b506200013492915062000138565b5090565b5b8082111562000134576000815560010162000139565b6000602080838503121562000162578182fd5b82516001600160401b038082111562000179578384fd5b818501915085601f8301126200018d578384fd5b815181811115620001a257620001a262000262565b604051601f8201601f19908116603f01168101908382118183101715620001cd57620001cd62000262565b816040528281528886848701011115620001e5578687fd5b8693505b82841015620002085784840186015181850187015292850192620001e9565b828411156200021957868684830101525b98975050505050505050565b600181811c908216806200023a57607f821691505b602082108114156200025c57634e487b7160e01b600052602260045260246000fd5b50919050565b634e487b7160e01b600052604160045260246000fd5b61190980620002886000396000f3fe608060405234801561001057600080fd5b50600436106100e95760003560e01c8063731133e91161008c578063c4a6d0d211610066578063c4a6d0d2146101f5578063e985e9c5146101fd578063f242432a14610239578063f2fde38b1461024c57600080fd5b8063731133e9146101b45780638da5cb5b146101c7578063a22cb465146101e257600080fd5b80632693ebf2116100c85780632693ebf2146101575780632eb2c2d6146101775780634e1273f41461018c578063715018a6146101ac57600080fd5b8062fdd58e146100ee57806301ffc9a7146101145780630e89341c14610137575b600080fd5b6101016100fc3660046112eb565b61025f565b6040519081526020015b60405180910390f35b61012761012236600461143e565b6102f6565b604051901515815260200161010b565b61014a610145366004611476565b610348565b60405161010b91906115f7565b610101610165366004611476565b60056020526000908152604090205481565b61018a6101853660046111a8565b6103dc565b005b61019f61019a366004611373565b6106a3565b60405161010b91906115b6565b61018a610805565b61018a6101c2366004611314565b610879565b6003546040516001600160a01b03909116815260200161010b565b61018a6101f03660046112b1565b61093e565b600454610101565b61012761020b366004611176565b6001600160a01b03918216600090815260016020908152604080832093909416825291909152205460ff1690565b61018a61024736600461124e565b610a15565b61018a61025a366004611155565b610bc5565b60006001600160a01b0383166102d05760405162461bcd60e51b815260206004820152602b60248201527f455243313135353a2062616c616e636520717565727920666f7220746865207a60448201526a65726f206164647265737360a81b60648201526084015b60405180910390fd5b506000908152602081815260408083206001600160a01b03949094168352929052205490565b60006001600160e01b03198216636cdb3d1360e11b148061032757506001600160e01b031982166303a24d0760e21b145b8061034257506301ffc9a760e01b6001600160e01b03198316145b92915050565b60606002805461035790611769565b80601f016020809104026020016040519081016040528092919081815260200182805461038390611769565b80156103d05780601f106103a5576101008083540402835291602001916103d0565b820191906000526020600020905b8154815290600101906020018083116103b357829003601f168201915b50505050509050919050565b815183511461043e5760405162461bcd60e51b815260206004820152602860248201527f455243313135353a2069647320616e6420616d6f756e7473206c656e677468206044820152670dad2e6dac2e8c6d60c31b60648201526084016102c7565b6001600160a01b0384166104645760405162461bcd60e51b81526004016102c790611652565b6001600160a01b0385163314806104805750610480853361020b565b6104e75760405162461bcd60e51b815260206004820152603260248201527f455243313135353a207472616e736665722063616c6c6572206973206e6f74206044820152711bdddb995c881b9bdc88185c1c1c9bdd995960721b60648201526084016102c7565b3360005b845181101561063557600085828151811061051657634e487b7160e01b600052603260045260246000fd5b60200260200101519050600085838151811061054257634e487b7160e01b600052603260045260246000fd5b602090810291909101810151600084815280835260408082206001600160a01b038e1683529093529190912054909150818110156105925760405162461bcd60e51b81526004016102c790611697565b61059c8282611752565b60008085815260200190815260200160002060008c6001600160a01b03166001600160a01b03168152602001908152602001600020819055508160008085815260200190815260200160002060008b6001600160a01b03166001600160a01b03168152602001908152602001600020600082825461061a919061173a565b925050819055505050508061062e906117d1565b90506104eb565b50846001600160a01b0316866001600160a01b0316826001600160a01b03167f4a39dc06d4c0dbc64b70af90fd698a233a518aa5d07e595d983b8c0526c8f7fb87876040516106859291906115c9565b60405180910390a461069b818787878787610cb0565b505050505050565b606081518351146107085760405162461bcd60e51b815260206004820152602960248201527f455243313135353a206163636f756e747320616e6420696473206c656e677468604482015268040dad2e6dac2e8c6d60bb1b60648201526084016102c7565b6000835167ffffffffffffffff81111561073257634e487b7160e01b600052604160045260246000fd5b60405190808252806020026020018201604052801561075b578160200160208202803683370190505b50905060005b84518110156107fd576107c285828151811061078d57634e487b7160e01b600052603260045260246000fd5b60200260200101518583815181106107b557634e487b7160e01b600052603260045260246000fd5b602002602001015161025f565b8282815181106107e257634e487b7160e01b600052603260045260246000fd5b60209081029190910101526107f6816117d1565b9050610761565b509392505050565b6003546001600160a01b0316331461082f5760405162461bcd60e51b81526004016102c7906116e1565b6003546040516000916001600160a01b0316907f8be0079c531659141344cd1fd0a4f28419497f9722a3daafe3b4186f6b6457e0908390a3600380546001600160a01b0319169055565b6003546001600160a01b031633146108a35760405162461bcd60e51b81526004016102c7906116e1565b6000838152600560205260409020546108fb5760045483146108fb5760405162461bcd60e51b815260206004820152601160248201527015dc9bdb99c81a59081c1c9bdd9a591959607a1b60448201526064016102c7565b61090784848484610e1b565b60008381526005602052604090205461092190839061173a565b600084815260056020526040902055610938610f1c565b50505050565b336001600160a01b03831614156109a95760405162461bcd60e51b815260206004820152602960248201527f455243313135353a2073657474696e6720617070726f76616c20737461747573604482015268103337b91039b2b63360b91b60648201526084016102c7565b3360008181526001602090815260408083206001600160a01b03871680855290835292819020805460ff191686151590811790915590519081529192917f17307eab39ab6107e8899845ad3d59bd9653f200f220920489ca2b5937696c31910160405180910390a35050565b6001600160a01b038416610a3b5760405162461bcd60e51b81526004016102c790611652565b6001600160a01b038516331480610a575750610a57853361020b565b610ab55760405162461bcd60e51b815260206004820152602960248201527f455243313135353a2063616c6c6572206973206e6f74206f776e6572206e6f7260448201526808185c1c1c9bdd995960ba1b60648201526084016102c7565b33610ad5818787610ac588610f33565b610ace88610f33565b5050505050565b6000848152602081815260408083206001600160a01b038a16845290915290205483811015610b165760405162461bcd60e51b81526004016102c790611697565b610b208482611752565b6000868152602081815260408083206001600160a01b038c81168552925280832093909355881681529081208054869290610b5c90849061173a565b909155505060408051868152602081018690526001600160a01b03808916928a821692918616917fc3d58168c5ae7397731d063d5bbf3d657854427343f4c083240f7aacaa2d0f62910160405180910390a4610bbc828888888888610f8c565b50505050505050565b6003546001600160a01b03163314610bef5760405162461bcd60e51b81526004016102c7906116e1565b6001600160a01b038116610c545760405162461bcd60e51b815260206004820152602660248201527f4f776e61626c653a206e6577206f776e657220697320746865207a65726f206160448201526564647265737360d01b60648201526084016102c7565b6003546040516001600160a01b038084169216907f8be0079c531659141344cd1fd0a4f28419497f9722a3daafe3b4186f6b6457e090600090a3600380546001600160a01b0319166001600160a01b0392909216919091179055565b6001600160a01b0384163b1561069b5760405163bc197c8160e01b81526001600160a01b0385169063bc197c8190610cf49089908990889088908890600401611513565b602060405180830381600087803b158015610d0e57600080fd5b505af1925050508015610d3e575060408051601f3d908101601f19168201909252610d3b9181019061145a565b60015b610deb57610d4a611818565b806308c379a01415610d845750610d5f611830565b80610d6a5750610d86565b8060405162461bcd60e51b81526004016102c791906115f7565b505b60405162461bcd60e51b815260206004820152603460248201527f455243313135353a207472616e7366657220746f206e6f6e20455243313135356044820152732932b1b2b4bb32b91034b6b83632b6b2b73a32b960611b60648201526084016102c7565b6001600160e01b0319811663bc197c8160e01b14610bbc5760405162461bcd60e51b81526004016102c79061160a565b6001600160a01b038416610e7b5760405162461bcd60e51b815260206004820152602160248201527f455243313135353a206d696e7420746f20746865207a65726f206164647265736044820152607360f81b60648201526084016102c7565b33610e8c81600087610ac588610f33565b6000848152602081815260408083206001600160a01b038916845290915281208054859290610ebc90849061173a565b909155505060408051858152602081018590526001600160a01b0380881692600092918516917fc3d58168c5ae7397731d063d5bbf3d657854427343f4c083240f7aacaa2d0f62910160405180910390a4610ace81600087878787610f8c565b60048054906000610f2c836117d1565b9190505550565b60408051600180825281830190925260609160009190602080830190803683370190505090508281600081518110610f7b57634e487b7160e01b600052603260045260246000fd5b602090810291909101015292915050565b6001600160a01b0384163b1561069b5760405163f23a6e6160e01b81526001600160a01b0385169063f23a6e6190610fd09089908990889088908890600401611571565b602060405180830381600087803b158015610fea57600080fd5b505af192505050801561101a575060408051601f3d908101601f191682019092526110179181019061145a565b60015b61102657610d4a611818565b6001600160e01b0319811663f23a6e6160e01b14610bbc5760405162461bcd60e51b81526004016102c79061160a565b80356001600160a01b038116811461106d57600080fd5b919050565b600082601f830112611082578081fd5b8135602061108f82611716565b60405161109c82826117a4565b8381528281019150858301600585901b870184018810156110bb578586fd5b855b858110156110d9578135845292840192908401906001016110bd565b5090979650505050505050565b600082601f8301126110f6578081fd5b813567ffffffffffffffff81111561111057611110611802565b604051611127601f8301601f1916602001826117a4565b81815284602083860101111561113b578283fd5b816020850160208301379081016020019190915292915050565b600060208284031215611166578081fd5b61116f82611056565b9392505050565b60008060408385031215611188578081fd5b61119183611056565b915061119f60208401611056565b90509250929050565b600080600080600060a086880312156111bf578081fd5b6111c886611056565b94506111d660208701611056565b9350604086013567ffffffffffffffff808211156111f2578283fd5b6111fe89838a01611072565b94506060880135915080821115611213578283fd5b61121f89838a01611072565b93506080880135915080821115611234578283fd5b50611241888289016110e6565b9150509295509295909350565b600080600080600060a08688031215611265578081fd5b61126e86611056565b945061127c60208701611056565b93506040860135925060608601359150608086013567ffffffffffffffff8111156112a5578182fd5b611241888289016110e6565b600080604083850312156112c3578182fd5b6112cc83611056565b9150602083013580151581146112e0578182fd5b809150509250929050565b600080604083850312156112fd578182fd5b61130683611056565b946020939093013593505050565b60008060008060808587031215611329578384fd5b61133285611056565b93506020850135925060408501359150606085013567ffffffffffffffff81111561135b578182fd5b611367878288016110e6565b91505092959194509250565b60008060408385031215611385578182fd5b823567ffffffffffffffff8082111561139c578384fd5b818501915085601f8301126113af578384fd5b813560206113bc82611716565b6040516113c982826117a4565b8381528281019150858301600585901b870184018b10156113e8578889fd5b8896505b84871015611411576113fd81611056565b8352600196909601959183019183016113ec565b5096505086013592505080821115611427578283fd5b5061143485828601611072565b9150509250929050565b60006020828403121561144f578081fd5b813561116f816118ba565b60006020828403121561146b578081fd5b815161116f816118ba565b600060208284031215611487578081fd5b5035919050565b6000815180845260208085019450808401835b838110156114bd578151875295820195908201906001016114a1565b509495945050505050565b60008151808452815b818110156114ed576020818501810151868301820152016114d1565b818111156114fe5782602083870101525b50601f01601f19169290920160200192915050565b6001600160a01b0386811682528516602082015260a06040820181905260009061153f9083018661148e565b8281036060840152611551818661148e565b9050828103608084015261156581856114c8565b98975050505050505050565b6001600160a01b03868116825285166020820152604081018490526060810183905260a0608082018190526000906115ab908301846114c8565b979650505050505050565b60208152600061116f602083018461148e565b6040815260006115dc604083018561148e565b82810360208401526115ee818561148e565b95945050505050565b60208152600061116f60208301846114c8565b60208082526028908201527f455243313135353a204552433131353552656365697665722072656a656374656040820152676420746f6b656e7360c01b606082015260800190565b60208082526025908201527f455243313135353a207472616e7366657220746f20746865207a65726f206164604082015264647265737360d81b606082015260800190565b6020808252602a908201527f455243313135353a20696e73756666696369656e742062616c616e636520666f60408201526939103a3930b739b332b960b11b606082015260800190565b6020808252818101527f4f776e61626c653a2063616c6c6572206973206e6f7420746865206f776e6572604082015260600190565b600067ffffffffffffffff82111561173057611730611802565b5060051b60200190565b6000821982111561174d5761174d6117ec565b500190565b600082821015611764576117646117ec565b500390565b600181811c9082168061177d57607f821691505b6020821081141561179e57634e487b7160e01b600052602260045260246000fd5b50919050565b601f8201601f1916810167ffffffffffffffff811182821017156117ca576117ca611802565b6040525050565b60006000198214156117e5576117e56117ec565b5060010190565b634e487b7160e01b600052601160045260246000fd5b634e487b7160e01b600052604160045260246000fd5b600060033d111561182d57600481823e5160e01c5b90565b600060443d101561183e5790565b6040516003193d81016004833e81513d67ffffffffffffffff816024840111818411171561186e57505050505090565b82850191508151818111156118865750505050505090565b843d87010160208285010111156118a05750505050505090565b6118af602082860101876117a4565b509095945050505050565b6001600160e01b0319811681146118d057600080fd5b5056fea2646970667358221220f4a74083ed510f80193330f6d4c73af690f5ee23ce675f1809069dbcdb6cc2d764736f6c63430008040033",
  "linkReferences": {},
  "deployedLinkReferences": {}
}