{
  "_format": "hh-sol-artifact-1",
  "contractName": "BarterWithArrays",
  "sourceName": "contracts/BarterWithArrays.sol",
  "abi": [
    {
      "anonymous": false,
      "inputs": [
        {
          "indexed": false,
          "internalType": "address",
          "name": "token",
          "type": "address"
        }
      ],
      "name": "ERC1155ForLendRemoved",
      "type": "event"
    },
    {
      "anonymous": false,
      "inputs": [
        {
          "indexed": false,
          "internalType": "address",
          "name": "token",
          "type": "address"
        }
      ],
      "name": "ERC1155ForLendUpdated",
      "type": "event"
    },
    {
      "anonymous": false,
      "inputs": [
        {
          "indexed": false,
          "internalType": "address",
          "name": "token",
          "type": "address"
        }
      ],
      "name": "ERC721ForLendRemoved",
      "type": "event"
    },
    {
      "anonymous": false,
      "inputs": [
        {
          "indexed": false,
          "internalType": "address",
          "name": "token",
          "type": "address"
        }
      ],
      "name": "ERC721ForLendUpdated",
      "type": "event"
    },
    {
      "anonymous": false,
      "inputs": [
        {
          "indexed": true,
          "internalType": "address",
          "name": "previousOwner",
          "type": "address"
        },
        {
          "indexed": true,
          "internalType": "address",
          "name": "newOwner",
          "type": "address"
        }
      ],
      "name": "OwnershipTransferred",
      "type": "event"
    },
    {
      "anonymous": false,
      "inputs": [],
      "name": "Received",
      "type": "event"
    },
    {
      "inputs": [
        {
          "internalType": "address",
          "name": "",
          "type": "address"
        },
        {
          "internalType": "uint256",
          "name": "",
          "type": "uint256"
        }
      ],
      "name": "UsersLend",
      "outputs": [
        {
          "internalType": "uint256",
          "name": "status",
          "type": "uint256"
        },
        {
          "internalType": "address",
          "name": "token",
          "type": "address"
        },
        {
          "internalType": "uint256",
          "name": "tokenId",
          "type": "uint256"
        },
        {
          "internalType": "uint256",
          "name": "tokenStandard",
          "type": "uint256"
        },
        {
          "internalType": "address",
          "name": "borrower",
          "type": "address"
        },
        {
          "internalType": "address",
          "name": "fulfilledToken",
          "type": "address"
        },
        {
          "internalType": "uint256",
          "name": "fulfilledTokenId",
          "type": "uint256"
        },
        {
          "internalType": "uint256",
          "name": "fulfilledTokenStandard",
          "type": "uint256"
        }
      ],
      "stateMutability": "view",
      "type": "function"
    },
    {
      "inputs": [
        {
          "internalType": "address",
          "name": "",
          "type": "address"
        }
      ],
      "name": "UsersLendCount",
      "outputs": [
        {
          "internalType": "uint256",
          "name": "",
          "type": "uint256"
        }
      ],
      "stateMutability": "view",
      "type": "function"
    },
    {
      "inputs": [
        {
          "internalType": "address",
          "name": "token",
          "type": "address"
        },
        {
          "internalType": "uint256",
          "name": "tokenId",
          "type": "uint256"
        },
        {
          "internalType": "uint256",
          "name": "tokenStandard",
          "type": "uint256"
        }
      ],
      "name": "approveBarter",
      "outputs": [],
      "stateMutability": "nonpayable",
      "type": "function"
    },
    {
      "inputs": [
        {
          "internalType": "address",
          "name": "user",
          "type": "address"
        },
        {
          "internalType": "uint256",
          "name": "counter",
          "type": "uint256"
        }
      ],
      "name": "getAcceptedAddressesLend",
      "outputs": [
        {
          "internalType": "address[]",
          "name": "",
          "type": "address[]"
        }
      ],
      "stateMutability": "view",
      "type": "function"
    },
    {
      "inputs": [
        {
          "internalType": "address",
          "name": "user",
          "type": "address"
        },
        {
          "internalType": "uint256",
          "name": "counter",
          "type": "uint256"
        }
      ],
      "name": "getAcceptedIdsLend",
      "outputs": [
        {
          "internalType": "uint256[]",
          "name": "",
          "type": "uint256[]"
        }
      ],
      "stateMutability": "view",
      "type": "function"
    },
    {
      "inputs": [
        {
          "internalType": "address",
          "name": "user",
          "type": "address"
        },
        {
          "internalType": "uint256",
          "name": "counter",
          "type": "uint256"
        }
      ],
      "name": "getAcceptedStandardsLend",
      "outputs": [
        {
          "internalType": "uint256[]",
          "name": "",
          "type": "uint256[]"
        }
      ],
      "stateMutability": "view",
      "type": "function"
    },
    {
      "inputs": [
        {
          "internalType": "uint256",
          "name": "borrowedAtTimestamp",
          "type": "uint256"
        },
        {
          "internalType": "uint256",
          "name": "durationHours",
          "type": "uint256"
        }
      ],
      "name": "isDurationExpired",
      "outputs": [
        {
          "internalType": "bool",
          "name": "",
          "type": "bool"
        }
      ],
      "stateMutability": "view",
      "type": "function"
    },
    {
      "inputs": [
        {
          "internalType": "address",
          "name": "wantedToken",
          "type": "address"
        },
        {
          "internalType": "uint256",
          "name": "wantedTokenId",
          "type": "uint256"
        },
        {
          "internalType": "address",
          "name": "offerToken",
          "type": "address"
        },
        {
          "internalType": "uint256",
          "name": "offerTokenId",
          "type": "uint256"
        },
        {
          "internalType": "uint256",
          "name": "wantedTokenStandard",
          "type": "uint256"
        },
        {
          "internalType": "uint256",
          "name": "offerTokenStandard",
          "type": "uint256"
        }
      ],
      "name": "makeOffer",
      "outputs": [],
      "stateMutability": "nonpayable",
      "type": "function"
    },
    {
      "inputs": [
        {
          "internalType": "address",
          "name": "",
          "type": "address"
        },
        {
          "internalType": "address",
          "name": "",
          "type": "address"
        },
        {
          "internalType": "uint256[]",
          "name": "",
          "type": "uint256[]"
        },
        {
          "internalType": "uint256[]",
          "name": "",
          "type": "uint256[]"
        },
        {
          "internalType": "bytes",
          "name": "",
          "type": "bytes"
        }
      ],
      "name": "onERC1155BatchReceived",
      "outputs": [
        {
          "internalType": "bytes4",
          "name": "",
          "type": "bytes4"
        }
      ],
      "stateMutability": "nonpayable",
      "type": "function"
    },
    {
      "inputs": [
        {
          "internalType": "address",
          "name": "",
          "type": "address"
        },
        {
          "internalType": "address",
          "name": "",
          "type": "address"
        },
        {
          "internalType": "uint256",
          "name": "",
          "type": "uint256"
        },
        {
          "internalType": "uint256",
          "name": "",
          "type": "uint256"
        },
        {
          "internalType": "bytes",
          "name": "",
          "type": "bytes"
        }
      ],
      "name": "onERC1155Received",
      "outputs": [
        {
          "internalType": "bytes4",
          "name": "",
          "type": "bytes4"
        }
      ],
      "stateMutability": "nonpayable",
      "type": "function"
    },
    {
      "inputs": [
        {
          "internalType": "address",
          "name": "_operator",
          "type": "address"
        },
        {
          "internalType": "address",
          "name": "_from",
          "type": "address"
        },
        {
          "internalType": "uint256",
          "name": "_tokenId",
          "type": "uint256"
        },
        {
          "internalType": "bytes",
          "name": "_data",
          "type": "bytes"
        }
      ],
      "name": "onERC721Received",
      "outputs": [
        {
          "internalType": "bytes4",
          "name": "",
          "type": "bytes4"
        }
      ],
      "stateMutability": "nonpayable",
      "type": "function"
    },
    {
      "inputs": [],
      "name": "owner",
      "outputs": [
        {
          "internalType": "address",
          "name": "",
          "type": "address"
        }
      ],
      "stateMutability": "view",
      "type": "function"
    },
    {
      "inputs": [],
      "name": "renounceOwnership",
      "outputs": [],
      "stateMutability": "nonpayable",
      "type": "function"
    },
    {
      "inputs": [
        {
          "internalType": "address",
          "name": "token",
          "type": "address"
        },
        {
          "internalType": "uint256",
          "name": "tokenId",
          "type": "uint256"
        },
        {
          "internalType": "uint256",
          "name": "durationHours",
          "type": "uint256"
        },
        {
          "internalType": "address[]",
          "name": "acceptedToken",
          "type": "address[]"
        },
        {
          "internalType": "uint256[]",
          "name": "acceptedTokenId",
          "type": "uint256[]"
        },
        {
          "internalType": "uint256",
          "name": "tokenStandard",
          "type": "uint256"
        },
        {
          "internalType": "uint256[]",
          "name": "acceptedTokenStandard",
          "type": "uint256[]"
        }
      ],
      "name": "startBartering",
      "outputs": [],
      "stateMutability": "nonpayable",
      "type": "function"
    },
    {
      "inputs": [
        {
          "internalType": "bytes4",
          "name": "interfaceId",
          "type": "bytes4"
        }
      ],
      "name": "supportsInterface",
      "outputs": [
        {
          "internalType": "bool",
          "name": "",
          "type": "bool"
        }
      ],
      "stateMutability": "view",
      "type": "function"
    },
    {
      "inputs": [
        {
          "internalType": "address",
          "name": "newOwner",
          "type": "address"
        }
      ],
      "name": "transferOwnership",
      "outputs": [],
      "stateMutability": "nonpayable",
      "type": "function"
    }
  ],
  "bytecode": "0x608060405234801561001057600080fd5b50600080546001600160a01b031916339081178255604051909182917f8be0079c531659141344cd1fd0a4f28419497f9722a3daafe3b4186f6b6457e0908290a350613214806100616000396000f3fe608060405234801561001057600080fd5b50600436106101005760003560e01c80637f5b1f3c11610097578063bc197c8111610066578063bc197c8114610296578063c80d9222146102b5578063f23a6e61146102c8578063f2fde38b146102e757600080fd5b80637f5b1f3c146101f757806380b816f81461020a5780638da5cb5b14610268578063b38df71f1461028357600080fd5b806342aa0513116100d357806342aa0513146101a75780635599e267146101bc5780636546de06146101dc578063715018a6146101ef57600080fd5b806301ffc9a714610105578063150b7a021461012d5780632240b11b1461015957806340c80b6314610179575b600080fd5b610118610113366004612eee565b6102fa565b60405190151581526020015b60405180910390f35b61014061013b366004612c2f565b610331565b6040516001600160e01b03199091168152602001610124565b61016c610167366004612d28565b61036e565b6040516101249190612ff0565b610199610187366004612b68565b60046020526000908152604090205481565b604051908152602001610124565b6101ba6101b5366004612da8565b61041c565b005b6101cf6101ca366004612d28565b61116e565b604051610124919061303d565b6101cf6101ea366004612d28565b611211565b6101ba6112b3565b6101ba610205366004612dda565b611357565b61021d610218366004612d28565b611ad5565b604080519889526001600160a01b0397881660208a01528801959095526060870193909352908416608086015290921660a084015260c083019190915260e082015261010001610124565b6000546040516001600160a01b039091168152602001610124565b6101ba610291366004612d51565b611b46565b6101406102a4366004612b89565b63bc197c8160e01b95945050505050565b6101186102c3366004612f2e565b6123af565b6101406102d6366004612cc5565b63f23a6e6160e01b95945050505050565b6101ba6102f5366004612b68565b6123e1565b60006001600160e01b03198216630271189760e51b148061032b57506301ffc9a760e01b6001600160e01b03198316145b92915050565b6040516000907f544c765b33ca411cce832250371569244f765a17fcd217832be093f0fd5fa45b908290a150630a85bd0160e11b95945050505050565b6001600160a01b0382166000908152600360205260409020805460609190839081106103aa57634e487b7160e01b600052603260045260246000fd5b90600052602060002090600b020160050180548060200260200160405190810160405280929190818152602001828054801561040f57602002820191906000526020600020905b81546001600160a01b031681526001909101906020018083116103f1575b5050505050905092915050565b6040805160048152602481019091526020810180516001600160e01b031663c5d2460160e01b179052610483821415610b31576001600160a01b03848116600090815260016020908152604080832087845290915290206002810154600782015460088301546009840154600390940154928516949182169390929091163385146104e75760405162461bcd60e51b81526020600482015260166024820152754e6f742063726561746f72206f66206261727465722160501b60448201526064015b60405180910390fd5b604080516004808252602480830184526020830180516001600160e01b031663c5d2460160e01b1790529251627eeac760e11b815230918101919091529182018a905296506000906001600160a01b038b169062fdd58e9060440160206040518083038186803b15801561055a57600080fd5b505afa15801561056e573d6000803e3d6000fd5b505050506040513d601f19601f820116820180604052508101906105929190612f16565b116105af5760405162461bcd60e51b81526004016104de906130c8565b8161048314156106c157604051627eeac760e11b8152306004820152602481018490526000906001600160a01b0386169062fdd58e9060440160206040518083038186803b15801561060057600080fd5b505afa158015610614573d6000803e3d6000fd5b505050506040513d601f19601f820116820180604052508101906106389190612f16565b116106555760405162461bcd60e51b81526004016104de906130c8565b604051637921219560e11b81526001600160a01b0385169063f242432a9061068a903090899088906001908d90600401612f73565b600060405180830381600087803b1580156106a457600080fd5b505af11580156106b8573d6000803e3d6000fd5b5050505061072e565b816102d1141561072e57604051632142170760e11b81526001600160a01b038516906342842e0e906106fb90309089908890600401612f4f565b600060405180830381600087803b15801561071557600080fd5b505af1158015610729573d6000803e3d6000fd5b505050505b604051637921219560e11b81526001600160a01b038a169063f242432a9061076390309085908d906001908d90600401612f73565b600060405180830381600087803b15801561077d57600080fd5b505af1158015610791573d6000803e3d6000fd5b5050506001600160a01b038a1660009081526001602090815260408083208c84528252808320838155600390810180546001600160a01b031916905533845290915281205491505b81811015610ae95733600090815260036020526040812080548390811061081057634e487b7160e01b600052603260045260246000fd5b60009182526020918290206040805161016081018252600b9093029091018054835260018101546001600160a01b03908116848601526002820154848401526003820154606085015260048201541660808401526005810180548351818702810187019094528084529394919360a0860193928301828280156108bc57602002820191906000526020600020905b81546001600160a01b0316815260019091019060200180831161089e575b505050505081526020016006820180548060200260200160405190810160405280929190818152602001828054801561091457602002820191906000526020600020905b815481526020019060010190808311610900575b505050505081526020016007820180548060200260200160405190810160405280929190818152602001828054801561096c57602002820191906000526020600020905b815481526020019060010190808311610958575b505050505081526020016008820160009054906101000a90046001600160a01b03166001600160a01b03166001600160a01b0316815260200160098201548152602001600a8201548152505090508b6001600160a01b031681602001516001600160a01b03161480156109e257508a8160400151145b80156109f15750898160600151145b15610ad657336000908152600360205260409020805483908110610a2557634e487b7160e01b600052603260045260246000fd5b600091825260208220600b909102018181556001810180546001600160a01b03199081169091556002820183905560038201839055600482018054909116905590610a73600583018261299c565b610a8160068301600061299c565b610a8f60078301600061299c565b506008810180546001600160a01b0319169055600060098201819055600a909101819055338152600460205260408120805460019290610ad0908490613180565b90915550505b5080610ae181613197565b9150506107d9565b506040516001600160a01b038b1681527fdd32c18f3d911dc2fe98e848af85467180ddbe7da442602729b0eba7acea6fbc9060200160405180910390a1505050505050611168565b6001600160a01b0384811660009081526002602081815260408084208885529091529091209081015460078201546008830154600984015460039094015492851694918216939092909116338514610bc45760405162461bcd60e51b81526020600482015260166024820152754e6f742063726561746f72206f66206261727465722160501b60448201526064016104de565b6040805160048152602481019091526020810180516001600160e01b031663c5d2460160e01b1790529550610483821415610d0157604051627eeac760e11b8152306004820152602481018490526000906001600160a01b0386169062fdd58e9060440160206040518083038186803b158015610c4057600080fd5b505afa158015610c54573d6000803e3d6000fd5b505050506040513d601f19601f82011682018060405250810190610c789190612f16565b11610c955760405162461bcd60e51b81526004016104de906130c8565b604051637921219560e11b81526001600160a01b0385169063f242432a90610cca903090899088906001908d90600401612f73565b600060405180830381600087803b158015610ce457600080fd5b505af1158015610cf8573d6000803e3d6000fd5b50505050610d6e565b816102d11415610d6e57604051632142170760e11b81526001600160a01b038516906342842e0e90610d3b90309089908890600401612f4f565b600060405180830381600087803b158015610d5557600080fd5b505af1158015610d69573d6000803e3d6000fd5b505050505b604051632142170760e11b81526001600160a01b038a16906342842e0e90610d9e90309085908d90600401612f4f565b600060405180830381600087803b158015610db857600080fd5b505af1158015610dcc573d6000803e3d6000fd5b5050506001600160a01b038a1660009081526002602090815260408083208c84528252808320838155600390810180546001600160a01b031916905533845290915281205491505b8181101561112457336000908152600360205260408120805483908110610e4b57634e487b7160e01b600052603260045260246000fd5b60009182526020918290206040805161016081018252600b9093029091018054835260018101546001600160a01b03908116848601526002820154848401526003820154606085015260048201541660808401526005810180548351818702810187019094528084529394919360a086019392830182828015610ef757602002820191906000526020600020905b81546001600160a01b03168152600190910190602001808311610ed9575b5050505050815260200160068201805480602002602001604051908101604052809291908181526020018280548015610f4f57602002820191906000526020600020905b815481526020019060010190808311610f3b575b5050505050815260200160078201805480602002602001604051908101604052809291908181526020018280548015610fa757602002820191906000526020600020905b815481526020019060010190808311610f93575b505050505081526020016008820160009054906101000a90046001600160a01b03166001600160a01b03166001600160a01b0316815260200160098201548152602001600a8201548152505090508b6001600160a01b031681602001516001600160a01b031614801561101d57508a8160400151145b801561102c5750898160600151145b156111115733600090815260036020526040902080548390811061106057634e487b7160e01b600052603260045260246000fd5b600091825260208220600b909102018181556001810180546001600160a01b031990811690915560028201839055600382018390556004820180549091169055906110ae600583018261299c565b6110bc60068301600061299c565b6110ca60078301600061299c565b506008810180546001600160a01b0319169055600060098201819055600a90910181905533815260046020526040812080546001929061110b908490613180565b90915550505b508061111c81613197565b915050610e14565b506040516001600160a01b038b1681527fdf8332822a93063eefe7bb96dc14cd6543052105561575b4757900216856904c9060200160405180910390a15050505050505b50505050565b6001600160a01b0382166000908152600360205260409020805460609190839081106111aa57634e487b7160e01b600052603260045260246000fd5b90600052602060002090600b020160060180548060200260200160405190810160405280929190818152602001828054801561040f57602002820191906000526020600020905b8154815260200190600101908083116111f1575050505050905092915050565b6001600160a01b03821660009081526003602052604090208054606091908390811061124d57634e487b7160e01b600052603260045260246000fd5b90600052602060002090600b020160070180548060200260200160405190810160405280929190818152602001828054801561040f57602002820191906000526020600020908154815260200190600101908083116111f1575050505050905092915050565b6000546001600160a01b0316331461130d5760405162461bcd60e51b815260206004820181905260248201527f4f776e61626c653a2063616c6c6572206973206e6f7420746865206f776e657260448201526064016104de565b600080546040516001600160a01b03909116907f8be0079c531659141344cd1fd0a4f28419497f9722a3daafe3b4186f6b6457e0908390a3600080546001600160a01b0319169055565b600085116113b95760405162461bcd60e51b815260206004820152602960248201527f4c656e64696e673a204c656e64696e67206475726174696f6e206d75737420626044820152680652061626f766520360bc1b60648201526084016104de565b3360009081526004602052604081208054600192906113d9908490613149565b909155505033600090815260036020818152604080842081516101608101835260018082526001600160a01b038e81168387019081529483018e8152606084018b8152608085018a815260a086018f815260c087018f905260e087018d905261010087018c905261012087018c905261014087018c905287548087018955978c529a8990208651600b90980201968755965193860180549484166001600160a01b0319958616179055905160028601555196840196909655925160048301805491909616931692909217909355925180516114ba92600585019201906129bd565b5060c082015180516114d6916006840191602090910190612a22565b5060e082015180516114f2916007840191602090910190612a22565b506101008201516008820180546001600160a01b0319166001600160a01b03909216919091179055610120820151600982015561014090910151600a90910155610483821415611819576001600160a01b0387811660009081526001602090815260408083208a845290915290206003015416156115825760405162461bcd60e51b81526004016104de90613075565b6040805160048082526024820183526020820180516001600160e01b031663c5d2460160e01b1790529151637921219560e11b815290916001600160a01b038a169163f242432a916115df91339130918d91600191899101612f73565b600060405180830381600087803b1580156115f957600080fd5b505af115801561160d573d6000803e3d6000fd5b5050505060405180610140016040528087815260200160008152602001306001600160a01b0316815260200160006001600160a01b0316815260200186815260200185815260200183815260200160006001600160a01b03168152602001600081526020016000815250600160008a6001600160a01b03166001600160a01b031681526020019081526020016000206000898152602001908152602001600020600082015181600001556020820151816001015560408201518160020160006101000a8154816001600160a01b0302191690836001600160a01b0316021790555060608201518160030160006101000a8154816001600160a01b0302191690836001600160a01b0316021790555060808201518160040190805190602001906117379291906129bd565b5060a08201518051611753916005840191602090910190612a22565b5060c0820151805161176f916006840191602090910190612a22565b5060e08201516007820180546001600160a01b039283166001600160a01b031991821617909155610100840151600884015561012090930151600990920191909155891660008181526001602081815260408084208d85528252928390206002810180549096163317909555429490910193909355519081527f7c989f2fccb63be2c04bfe1f556090060ae284ac2eefc187ad397f9f3f48052a910160405180910390a150611acc565b816102d11415611acc576001600160a01b0387811660009081526002602090815260408083208a845290915290206003015416156118695760405162461bcd60e51b81526004016104de90613075565b604051632142170760e11b81526001600160a01b038816906342842e0e9061189990339030908b90600401612f4f565b600060405180830381600087803b1580156118b357600080fd5b505af11580156118c7573d6000803e3d6000fd5b5050505060405180610140016040528086815260200160008152602001306001600160a01b0316815260200160006001600160a01b0316815260200185815260200184815260200182815260200160006001600160a01b0316815260200160008152602001600081525060026000896001600160a01b03166001600160a01b031681526020019081526020016000206000888152602001908152602001600020600082015181600001556020820151816001015560408201518160020160006101000a8154816001600160a01b0302191690836001600160a01b0316021790555060608201518160030160006101000a8154816001600160a01b0302191690836001600160a01b0316021790555060808201518160040190805190602001906119f19291906129bd565b5060a08201518051611a0d916005840191602090910190612a22565b5060c08201518051611a29916006840191602090910190612a22565b5060e08201516007820180546001600160a01b039283166001600160a01b031991821617909155610100840151600884015561012090930151600990920191909155881660008181526002602081815260408084208c8552825292839020918201805490951633179094554260019190910155519081527fc8d9f5be6de7d759b26f4c44e8fbd723643bdb5599fc1658f0a950d34708d51b910160405180910390a15b50505050505050565b60036020528160005260406000208181548110611af157600080fd5b60009182526020909120600b909102018054600182015460028301546003840154600485015460088601546009870154600a909701549598506001600160a01b03948516975092959194908416939092169188565b816104831415611f78576001600160a01b0386166000908152600160209081526040808320888452909152902054611bb45760405162461bcd60e51b815260206004820152601160248201527042617274657220636f6d706c657465642160781b60448201526064016104de565b6040805160048152602481018252602080820180516001600160e01b031663c5d2460160e01b1790526001600160a01b038916600090815260018083528482208a8352909252929092209182015491549091611c0f916123af565b15611f72576001600160a01b038716600090815260016020908152604080832089845290915281206004015490805b82811015611d8e576001600160a01b038a1660009081526001602090815260408083208c84529091528120600401805483908110611c8c57634e487b7160e01b600052603260045260246000fd5b60009182526020808320909101546001600160a01b038e811684526001835260408085208f865290935291832060050180549290911693509084908110611ce357634e487b7160e01b600052603260045260246000fd5b60009182526020808320909101546001600160a01b038f1683526001825260408084208f855290925290822060060180549193509085908110611d3657634e487b7160e01b600052603260045260246000fd5b906000526020600020015490508a6001600160a01b0316836001600160a01b0316148015611d6357508982145b8015611d6e57508781145b15611d7857600194505b5050508080611d8690613197565b915050611c3e565b5080600114611ddf5760405162461bcd60e51b815260206004820152601f60248201527f546f6b656e206e6f7420696e206172726179206f66206163636570746564210060448201526064016104de565b836104831415611e5557604051637921219560e11b81526001600160a01b0388169063f242432a90611e1e90339030908b906001908a90600401612f73565b600060405180830381600087803b158015611e3857600080fd5b505af1158015611e4c573d6000803e3d6000fd5b50505050611ec2565b836102d11415611ec257604051632142170760e11b81526001600160a01b038816906342842e0e90611e8f90339030908b90600401612f4f565b600060405180830381600087803b158015611ea957600080fd5b505af1158015611ebd573d6000803e3d6000fd5b505050505b6001600160a01b0389811660009081526001602090815260408083208c84529091529020600381018054336001600160a01b03199182168117909255600783018054909116938b169390931790925560088101889055600901859055611f33908890889087908d908d908b906124fb565b6040516001600160a01b038a1681527f7c989f2fccb63be2c04bfe1f556090060ae284ac2eefc187ad397f9f3f48052a9060200160405180910390a150505b506123a7565b816102d114156123a7576001600160a01b0386166000908152600260209081526040808320888452909152902054611fe65760405162461bcd60e51b815260206004820152601160248201527042617274657220636f6d706c657465642160781b60448201526064016104de565b6040805160048152602481018252602080820180516001600160e01b031663c5d2460160e01b1790526001600160a01b038916600090815260028252838120898252909152919091206001810154905461204091906123af565b15611acc576001600160a01b038716600090815260016020908152604080832089845290915281206004015490805b828110156121bf576001600160a01b038a1660009081526001602090815260408083208c845290915281206004018054839081106120bd57634e487b7160e01b600052603260045260246000fd5b60009182526020808320909101546001600160a01b038e811684526001835260408085208f86529093529183206005018054929091169350908490811061211457634e487b7160e01b600052603260045260246000fd5b60009182526020808320909101546001600160a01b038f1683526001825260408084208f85529092529082206006018054919350908590811061216757634e487b7160e01b600052603260045260246000fd5b906000526020600020015490508a6001600160a01b0316836001600160a01b031614801561219457508982145b801561219f57508781145b156121a957600194505b50505080806121b790613197565b91505061206f565b50806001146122105760405162461bcd60e51b815260206004820152601f60248201527f546f6b656e206e6f7420696e206172726179206f66206163636570746564210060448201526064016104de565b83610483141561228657604051637921219560e11b81526001600160a01b0388169063f242432a9061224f90339030908b906001908a90600401612f73565b600060405180830381600087803b15801561226957600080fd5b505af115801561227d573d6000803e3d6000fd5b505050506122f3565b836102d114156122f357604051632142170760e11b81526001600160a01b038816906342842e0e906122c090339030908b90600401612f4f565b600060405180830381600087803b1580156122da57600080fd5b505af11580156122ee573d6000803e3d6000fd5b505050505b6001600160a01b0389811660009081526002602090815260408083208c84529091529020600381018054336001600160a01b03199182168117909255600783018054909116938b169390931790925560088101889055600901859055612364908890889087908d908d908b906124fb565b6040516001600160a01b038a1681527fc8d9f5be6de7d759b26f4c44e8fbd723643bdb5599fc1658f0a950d34708d51b9060200160405180910390a15050611acc565b505050505050565b6000806123bc8442613180565b905060006123cb82603c613161565b6123d690603c613161565b909310949350505050565b6000546001600160a01b0316331461243b5760405162461bcd60e51b815260206004820181905260248201527f4f776e61626c653a2063616c6c6572206973206e6f7420746865206f776e657260448201526064016104de565b6001600160a01b0381166124a05760405162461bcd60e51b815260206004820152602660248201527f4f776e61626c653a206e6577206f776e657220697320746865207a65726f206160448201526564647265737360d01b60648201526084016104de565b600080546040516001600160a01b03808516939216917f8be0079c531659141344cd1fd0a4f28419497f9722a3daafe3b4186f6b6457e091a3600080546001600160a01b0319166001600160a01b0392909216919091179055565b600082610483141561253657506001600160a01b0380851660009081526001602090815260408083208784529091529020600201541661256a565b826102d1141561256a57506001600160a01b0380851660009081526002602081815260408084208885529091529091200154165b6001600160a01b038116600090815260036020526040812054905b81811015612990576001600160a01b03831660009081526003602052604081208054839081106125c557634e487b7160e01b600052603260045260246000fd5b60009182526020918290206040805161016081018252600b9093029091018054835260018101546001600160a01b03908116848601526002820154848401526003820154606085015260048201541660808401526005810180548351818702810187019094528084529394919360a08601939283018282801561267157602002820191906000526020600020905b81546001600160a01b03168152600190910190602001808311612653575b50505050508152602001600682018054806020026020016040519081016040528092919081815260200182805480156126c957602002820191906000526020600020905b8154815260200190600101908083116126b5575b505050505081526020016007820180548060200260200160405190810160405280929190818152602001828054801561272157602002820191906000526020600020905b81548152602001906001019080831161270d575b505050505081526020016008820160009054906101000a90046001600160a01b03166001600160a01b03166001600160a01b0316815260200160098201548152602001600a820154815250509050876001600160a01b031681602001516001600160a01b03161480156127975750868160400151145b1561297d576001600160a01b0384166000908152600360205260409020805460029190849081106127d857634e487b7160e01b600052603260045260246000fd5b90600052602060002090600b0201600001819055508a60036000866001600160a01b03166001600160a01b03168152602001908152602001600020838154811061283257634e487b7160e01b600052603260045260246000fd5b60009182526020808320600b9290920290910160080180546001600160a01b0319166001600160a01b03948516179055918616815260039091526040902080548b91908490811061289357634e487b7160e01b600052603260045260246000fd5b90600052602060002090600b0201600901819055508860036000866001600160a01b03166001600160a01b0316815260200190815260200160002083815481106128ed57634e487b7160e01b600052603260045260246000fd5b90600052602060002090600b0201600a01819055503360036000866001600160a01b03166001600160a01b03168152602001908152602001600020838154811061294757634e487b7160e01b600052603260045260246000fd5b90600052602060002090600b020160040160006101000a8154816001600160a01b0302191690836001600160a01b031602179055505b508061298881613197565b915050612585565b50505050505050505050565b50805460008255906000526020600020908101906129ba9190612a5d565b50565b828054828255906000526020600020908101928215612a12579160200282015b82811115612a1257825182546001600160a01b0319166001600160a01b039091161782556020909201916001909101906129dd565b50612a1e929150612a5d565b5090565b828054828255906000526020600020908101928215612a12579160200282015b82811115612a12578251825591602001919060010190612a42565b5b80821115612a1e5760008155600101612a5e565b80356001600160a01b0381168114612a8957600080fd5b919050565b600082601f830112612a9e578081fd5b81356020612ab3612aae83613125565b6130f4565b80838252828201915082860187848660051b8901011115612ad2578586fd5b855b85811015612af057813584529284019290840190600101612ad4565b5090979650505050505050565b600082601f830112612b0d578081fd5b813567ffffffffffffffff811115612b2757612b276131c8565b612b3a601f8201601f19166020016130f4565b818152846020838601011115612b4e578283fd5b816020850160208301379081016020019190915292915050565b600060208284031215612b79578081fd5b612b8282612a72565b9392505050565b600080600080600060a08688031215612ba0578081fd5b612ba986612a72565b9450612bb760208701612a72565b9350604086013567ffffffffffffffff80821115612bd3578283fd5b612bdf89838a01612a8e565b94506060880135915080821115612bf4578283fd5b612c0089838a01612a8e565b93506080880135915080821115612c15578283fd5b50612c2288828901612afd565b9150509295509295909350565b600080600080600060808688031215612c46578081fd5b612c4f86612a72565b9450612c5d60208701612a72565b935060408601359250606086013567ffffffffffffffff80821115612c80578283fd5b818801915088601f830112612c93578283fd5b813581811115612ca1578384fd5b896020828501011115612cb2578384fd5b9699959850939650602001949392505050565b600080600080600060a08688031215612cdc578081fd5b612ce586612a72565b9450612cf360208701612a72565b93506040860135925060608601359150608086013567ffffffffffffffff811115612d1c578182fd5b612c2288828901612afd565b60008060408385031215612d3a578182fd5b612d4383612a72565b946020939093013593505050565b60008060008060008060c08789031215612d69578081fd5b612d7287612a72565b955060208701359450612d8760408801612a72565b9350606087013592506080870135915060a087013590509295509295509295565b600080600060608486031215612dbc578283fd5b612dc584612a72565b95602085013595506040909401359392505050565b600080600080600080600060e0888a031215612df4578485fd5b612dfd88612a72565b9650602080890135965060408901359550606089013567ffffffffffffffff80821115612e28578384fd5b818b0191508b601f830112612e3b578384fd5b8135612e49612aae82613125565b8082825285820191508585018f878560051b8801011115612e68578788fd5b8795505b83861015612e9157612e7d81612a72565b835260019590950194918601918601612e6c565b509850505060808b0135925080831115612ea9578384fd5b612eb58c848d01612a8e565b955060a08b0135945060c08b0135925080831115612ed1578384fd5b5050612edf8a828b01612a8e565b91505092959891949750929550565b600060208284031215612eff578081fd5b81356001600160e01b031981168114612b82578182fd5b600060208284031215612f27578081fd5b5051919050565b60008060408385031215612f40578182fd5b50508035926020909101359150565b6001600160a01b039384168152919092166020820152604081019190915260600190565b600060018060a01b03808816835260208188168185015286604085015285606085015260a06080850152845191508160a0850152825b82811015612fc55785810182015185820160c001528101612fa9565b82811115612fd6578360c084870101525b5050601f01601f19169190910160c0019695505050505050565b6020808252825182820181905260009190848201906040850190845b818110156130315783516001600160a01b03168352928401929184019160010161300c565b50909695505050505050565b6020808252825182820181905260009190848201906040850190845b8181101561303157835183529284019291840191600101613059565b60208082526033908201527f4c656e64696e673a2043616e6e6f74206368616e67652073657474696e67732c604082015272081d1bdad95b88185b1c9958591e481b195b9d606a1b606082015260800190565b6020808252601290820152714e6f7420656e6f75676820746f6b656e732160701b604082015260600190565b604051601f8201601f1916810167ffffffffffffffff8111828210171561311d5761311d6131c8565b604052919050565b600067ffffffffffffffff82111561313f5761313f6131c8565b5060051b60200190565b6000821982111561315c5761315c6131b2565b500190565b600081600019048311821515161561317b5761317b6131b2565b500290565b600082821015613192576131926131b2565b500390565b60006000198214156131ab576131ab6131b2565b5060010190565b634e487b7160e01b600052601160045260246000fd5b634e487b7160e01b600052604160045260246000fdfea2646970667358221220a07d44186825aebb5013a250e06036f5d256c5e97e581c9358969cb5b4dc2a6064736f6c63430008040033",
  "linkReferences": {},
  "deployedLinkReferences": {}
}